:020000040800F2
:1000000038300020A101000807400008CB3100086B
:1000100005400008370B0008994C0008000000005C
:10002000000000000000000000000000554700082C
:10003000310D00080000000009400008A547000835
:10004000BB010008BB010008BB010008BB010008A0
:10005000BB010008BB010008BB010008BB01000890
:10006000BB010008BB010008BB0100085D0C0008D3
:10007000690C0008BB010008750C0008BB010008F2
:10008000BB010008BB010008BB010008BB01000860
:10009000BB010008BB010008BB010008BB01000850
:1000A000BB010008BB010008BB010008BB01000840
:1000B000BB010008BB010008BB010008CD310008EE
:1000C000BB010008BB010008BB010008D5450008C2
:1000D000BB010008BB010008BB010008794C000807
:1000E000BB010008BB010008BB010008BB01000800
:1000F000BB010008BB010008BB010008BB010008F0
:10010000BB010008BB010008BB010008BB010008DF
:10011000BB010008BB010008BB010008BB010008CF
:10012000810C0008BB010008BB010008BB010008EE
:10013000BB010008BB010008BB010008BB010008AF
:10014000BB010008BB010008BB010008BB0100089F
:10015000BB010008BB010008BB010008BB0100088F
:10016000BB010008BB010008BB010008BB0100087F
:10017000BB010008BB010008BB0100080000000033
:10018000BB010008BB010008DFF810D000F064FBE1
:1001900000480047D16E0008AFF3008038300020DF
:1001A0000648804706480047FEE7FEE7FEE7FEE711
:1001B000FEE7FEE7FEE7FEE7FEE7FEE7654800082C
:1001C000890100082DE9F05F0546002092469B4614
:1001D00088460646814640241BE02846414647465D
:1001E000224600F052FA53465A46C01A914110D3A3
:1001F00011461846224600F039FA2D1A67EB01081D
:100200004F4622460120002100F030FA17EB00098A
:100210004E41201EA4F10104DFDC484631462A4647
:100220004346BDE8F09FD2B201E000F8012B491E21
:10023000FBD270470022F6E710B513460A46044683
:100240001946FFF7F0FF204610BD421C10F8011BB5
:100250000029FBD1801A7047034611F8012B00F8E2
:10026000012B002AF9D11846704710B548430446BF
:1002700006F036FF002805D00021002C02D0641EB5
:100280000155FAE710BD2DE9FE4F804681EA0300D3
:10029000C00F0C46009021F0004123F00045B8EB60
:1002A0000200A94105D24046214690461C460B4615
:1002B000024623F00040104347D0270DC7F30A0041
:1002C000C3F30A510290401A019040286BDAC3F33D
:1002D000130040F4801B0098924620B10023D2EB1B
:1002E000030A63EB0B0B01985946C0F140025046DC
:1002F00000F0BCF906460D4650465946019A00F0FA
:10030000D4F910EB08006141002487EA115284EA15
:10031000E7731A4340D0009A62B3019A012A4FEA68
:10032000075215DC001B61EB02014FF0004202EAAC
:100330000752CDE90042001C41F5801132462B46A0
:1003400000F00BFA03B0BDE8F08F40462146F9E714
:10035000001B61EB0201001C41F5801300185B419A
:100360002018A2F5001747EB030140EAD570B61933
:100370006D4111E06D084FEA360645EAC0754FEA57
:100380000752001B61EB0201001C41F58011490876
:100390004FEA30000019514132462B4603B0BDE808
:1003A000F04F00F0CBB90098012240000023D0EBC1
:1003B000020263EBE073009821464FEAE074B8EB69
:1003C000000061EB0401E9E783F000435BE781F0A3
:1003D000004158E72DE9FE4F81EA030404F0004490
:1003E00021F0004100944FF0000B23F0004350EA4D
:1003F00001045ED052EA03045BD0C3F30A54C1F394
:100400000A552C44A4F2F3340194A0FB0254C1F326
:10041000130141F48011C3F3130343F4801301FB70
:10042000024400FB034E840A970A44EA815447EAD7
:100430008357A4FB076802958D0A05FB07854FEAE1
:10044000932C04FB0C542705029D4FEA065847EAFB
:100450001637B5EB08056EEB070C870E920E47EAD0
:10046000811742EA8312A7FB0201B6EB0B0164EB92
:1004700000042B0D43EA0C335E1844EB1C50DA46A3
:100480005146E7FB0201C5F313044FEA0B3343EA7D
:1004900014534FEA0432019C43EA0603A4F10C040E
:1004A0000294009CCDE900B400F057F903B0BDE818
:1004B000F08F00200146F9E72DE9F04D81EA0304B1
:1004C00004F0004B21F0004514464FF0000A23F0E1
:1004D000004150EA050220D054EA01021DD0C5F3C4
:1004E0000A570246C5F31303C1F31300C1F30A56BA
:1004F00040F4801543F48013A7EB0608101BD64682
:1005000008F2FD3873EB050002D308F1010801E0A1
:1005100092185B41B8F1000F03DA00200146BDE8F4
:10052000F08D00204FF48011064684460EE0171B24
:1005300073EB050705D3121B63EB050306434CEA77
:10054000010C49084FEA300092185B4150EA01075C
:10055000EDD152EA030012D082EA040083EA0501D9
:10056000084305D0101BAB4106D20122002306E050
:1005700000224FF0004302E06FF0010253101AEB2B
:1005800006004CEB085110EB0A0041EB0B01BDE8F3
:10059000F04D00F0D3B80EB540F233410291002186
:1005A000CDE900110A460B4600F0D7F803B000BDB4
:1005B000C1F30A5210B5C1F3130140F2FF3341F405
:1005C00080119A4201DA002010BD40F233439A4272
:1005D000A2F2334203DC524200F057F810BD9040C3
:1005E00010BD00F0004230F000400AD0C10D01F50E
:1005F0006071C0F3160042EA0151C208400711437E
:10060000704700200146704701F0004330B421F0EC
:10061000004150EA010206D00A0DA2F56072C1F352
:100620001301002A02DC30BC00207047440F44EA6A
:10063000C104C100E01830BC00EBC25000F047B864
:1006400030B50B46014600202022012409E021FAA2
:1006500002F59D4205D303FA02F5491B04FA02F59F
:100660002844151EA2F10102F1DC30BD202A04DB72
:10067000203A00FA02F1002070479140C2F12003B5
:1006800020FA03F3194390407047202A04DB203AF4
:1006900021FA02F00021704721FA02F3D040C2F1A2
:1006A00020029140084319467047202A06DBCB17E9
:1006B000203A41FA02F043EAE07306E041FA02F31D
:1006C000D040C2F1200291400843194670470029EA
:1006D000A8BF7047401C490008BF20F001007047C8
:1006E00010B4B0FA80FC00FA0CF050EA010404BF28
:1006F00010BC704749B1CCF1200421FA04F411FA7E
:100700000CF118BF012121430843A3EB0C01CB1DC1
:100710004FEA00614FEA102042BF002010BC704732
:1007200000EBC35010440029A4BF10BC7047401C0C
:10073000490008BF20F0010010BC704710B5141E1E
:1007400073F1000408DA401C41F1000192185B418A
:100750001A4301D120F0010010BD2DE9F04D924661
:100760009B4611B1B1FA81F202E0B0FA80F2203278
:100770009046FFF77BFF04460F4640EA0A0041EA35
:100780000B0153465A46084313D0114653EA010061
:1007900019D0C8F140025046FFF777FF05460E46D4
:1007A000504659464246FFF761FF084305D00120F5
:1007B00004E020463946BDE8F08D0020054346EAB6
:1007C000E0762C4337430A986305E40AA0EB08005F
:1007D0000022FD0A44EA47540A3002D500200146AF
:1007E000E9E7010510196941DDE90845001969418A
:1007F000BDE8F04DA2E7C1F30A52C1F3130140F284
:10080000FF3341F480119A4202DA0020014670471A
:1008100040F233439A42A2F2334202DC5242FFF7E3
:1008200034BFFFF723BF000030B5041E71F1000490
:1008300004DB4FF00044404264EB0101141E73F1ED
:10084000000405DB1C464FF00043524263EB0403F7
:10085000994208BF904230BD064C074D06E0E06863
:1008600040F0010394E8070098471034AC42F6D3F7
:10087000FFF78EFC407F0008607F000810B501463E
:10088000806B026C12F0500F05D0026CD20626D598
:1008900000F01CFB10BD016C41F4007101640168A3
:1008A0008A6812F0405F17D1027EAAB9CA6A12F4B0
:1008B000700F02D08A6852050ED44A6822F02002D6
:1008C0004A60016C21F480710164016CC90403D495
:1008D000016C41F00101016400F0F6FA10BD806B7B
:1008E000C26CBDE810400846104710B5806B40212F
:1008F0000164416C41F00401416400F0E7FA10BD6D
:1009000010B5806B00F0E1FA10BD0000464910B54B
:100910004A6822F440324A604A6843681A434A608F
:1009200001684A6822F480724A6001684A68036973
:1009300042EA03224A6001684A6822F040724A6033
:1009400001684A6883681A434A6001688A6822F429
:1009500000628A6001688A68C3681A438A60816A93
:100960006FF07062D14201688A6822F070628A601A
:1009700001688A680CD0836A1A438A6001688A68B1
:1009800022F040528A6001688A68C36A1A4301E013
:1009900022F040528A6001688A6822F002028A606E
:1009A00001688A68037E42EA43028A6090F8201058
:1009B000002901684A680FD042F400624A60016869
:1009C0004A6822F460424A6001684A68174C436AE8
:1009D00004EB43331A4301E022F400624A600168E9
:1009E000CA6A22F47002CA620168CA6A838B104C18
:1009F00004EB03531A43CA6201688A6822F4007246
:100A00008A6001688A6890F8303042EA43228A603E
:100A100001688A6822F480628A6001688A68406995
:100A200042EA8020886010BD0023014000E0FFFF03
:100A30000000F0FF00F00F01000900EB800001EB67
:100A40004000C0B27047000010B50446007B617BD7
:100A500041EA0020FFF79FFD9FED051B53EC112B92
:100A6000FFF72AFDFFF7A4FD6081002010BD000004
:100A7000333333333333F33F10B5044600F03EF8DD
:100A80002046FFF7E1FF002010BD10B5044601210C
:100A900000F043F80321204600F03FF810212046E3
:100AA00000F03BF8002010BD2DE9F0410E46054650
:100AB000174614210120FFF7D8FB041E17D01FB1E1
:100AC00047202072462002E0BA202072B9206072CE
:100AD0003046FFF7BAFB06F003FB2060002806D083
:100AE00031466560FFF7B8FB024820612046BDE84B
:100AF000F0810000F90A0008FFF7BEBF38B50A21EF
:100B000000914468017A00F10C020223204600F0B3
:100B1000E3FF002800D0012038BD03B581B00A21D1
:100B20000091417A4068012302AA01F0C5F800282B
:100B300000D001200EBDFEE70A21B0FBF1F201FB5F
:100B40001202B0FBF1F042EA0010C0B270470000A0
:100B500001221146014800F0B6BD00000004024029
:100B600070B5264D044600220821284600F0ABFD52
:100B70004FF47A7004F084FF01220821284600F027
:100B8000A2FD0821284603F0E6FD282004F078FFA6
:100B90000821284600F092FD50B10821284603F0B4
:100BA000EDFD01220821284600F08DFD002070BDDA
:100BB0000821284600F082FD0028F9D008212846A7
:100BC00000F07CFD0028F9D100F01AF8207000F048
:100BD00017F8607000F014F8A07000F011F8E070E1
:100BE00000F00EF820710821284603F0C7FD01220D
:100BF0000821284600F067FD012070BD000002407A
:100C00002DE9F0410024144F01260821384600F058
:100C100055FD0028F9D01E2004F032FF0821384687
:100C200000F04CFD60B10821384600F047FD002877
:100C3000F9D1C4F1070106FA01F02843C5B204E076
:100C4000C4F1070006FA00F08543641CE4B2082CE6
:100C5000DBD32846BDE8F08100000240014800F0E7
:100C6000B3BA0000EC260020014800F0ADBA000045
:100C70004C270020014800F0A7BA0000AC27002054
:100C8000014800F0A1BA00008C260020016818235A
:100C9000CAB2103AB2FBF3F2054B6FF30901032A13
:100CA0009B5CC36500D9091D81650846704700003B
:100CB000C87A000810B5014600208B698A6A4FF097
:100CC000C07453B1B3F5005F15D072B1012A0CD0D6
:100CD000022A0AD0032A09D104E01AB1012A06D057
:100CE000022A03D1C96AC90100D5012010BDC96A11
:100CF000A142FAD010BD002AF7D0012AF2D0022A70
:100D0000F3D0032AF3D010BD30B50468256825F46C
:100D100080252560046863608368402B036803D0E6
:100D200099600068C26030BD9A600068C16030BDE3
:100D3000704772B6FEE70022AFF3008030B50E4B6D
:100D4000054601205C7A002C14D1587A1C54587A3C
:100D500003EB800045605D7A03F108002A54587A5D
:100D6000421C5A72303008703A2048702F20887028
:100D7000CC70002030BD00002C2A002078B5002463
:100D8000009490F83C20012A19D0012280F83C20E0
:100D90000A6807230568092A13D9EE680A3A02EBA4
:100DA000420293409E43EE600B788A680A3B03EB55
:100DB00043039A400368DD682A43DA6010E00220AA
:100DC00078BD2E6902EB420293409E432E610B7860
:100DD0008A6803EB43039A4003681D692A431A613A
:100DE0004A681F23072A13D205686E6B521E02EB56
:100DF000820293409E436E630B790A885B1E92B217
:100E000003EB83039A4003685D6B2A435A6327E030
:100E100005680D2A12D22E6BD21F02EB820293407C
:100E20009E432E630B790A88DB1F92B203EB830388
:100E30009A4003681D6B2A431A6311E0EE6A0D3A6B
:100E400002EB820293409E43EE620B790A880D3BCF
:100E500092B203EB83039A400368DD6A2A43DA62A5
:100E6000164B0568144A9D4206D10D68122D03D118
:100E7000556845F48005556005689D4218D10B689A
:100E8000102B01D0112B13D1536843F4000353608E
:100E9000096810290CD10A490A4A0968B1FBF2F124
:100EA00001EB8101490000E0491E00910029FBD1BE
:100EB00080F83C40002078BD002301400020014024
:100EC0005C00002040420F0070477047704770B5CB
:100ED00004004FF0000503D0206C002610B107E09D
:100EE000012070BD204600F01DF8666484F83C6067
:100EF000206CC00610D4206C20F4885040F0020012
:100F000020642046FFF702FD6664206C20F002009A
:100F100040F00100206400E0012584F83C60284690
:100F200070BD000070B586B0064614216846FFF714
:100F300081F91D493068884234D11C480025016878
:100F400041F480710160006800F4807005901748DA
:100F50001438016841F0010101600068694600F041
:100F600001000590102000900320CDE901051048F4
:100F700000F0AEFA104C0F48C4E900050015A5605A
:100F8000C4E90350400060618000A0614011C4E9E1
:100F900007052046656200F0E7F908B1FFF7C9FED2
:100FA000B463A66306B070BD00200140443802401F
:100FB00000000240106402408C260020F8B5044670
:100FC00000200E46009094F83C10012907D0012122
:100FD00084F83C1021688B68DB0702D011E0022006
:100FE000F8BD8B6843F001038B604049404B0968B2
:100FF000B1FBF3F101EB410100E0491E0091002932
:10100000FBD121688B68DB0503D58B6823F48073E3
:101010008B6021688B68DB075DD0236C40F2016533
:10102000AB4343F4807323644968490505D5216CBB
:1010300021F4005141F480512164216CC90404D58C
:10104000616C21F00601616400E0606484F83C009A
:10105000A16B2948274DC863A16B28480864A16B80
:101060002748C86421686FF0220008602068416842
:1010700041F0806141602068816841F48071816045
:101080002168134632464C31A06B00F0D7F96868EE
:101090001C49C006206806D0884224D1816811F01E
:1010A000405F13D01FE08842F8D0174A904203D126
:1010B000D1F80423D206F1D0144A904213D1D1F8CA
:1010C000041301F01F011029E8D30CE0816841F0FE
:1010D0008041816007E0206C40F010002064606C6B
:1010E00040F0010060640020F8BD00005C000020BA
:1010F00040420F00002301407D080008010900085C
:10110000EB080008002001400021014000220140BE
:101110002DE9F0410446876D00F0DAFA064694F8AE
:1011200035000025022806D08020606584F8345000
:101130000120BDE8F0812068016821F016010160FE
:101140002068416921F080014161206C08B9A06CE0
:1011500020B12068016821F0080101602068016861
:1011600021F0010101600BE000F0B2FA801B0528BC
:1011700006D92020606504F8345F03206070D8E74A
:1011800020680068C007EFD194F85C103F208840C9
:10119000B86004F8345F012060700020C9E790F85F
:1011A0003510022903D080214165012070470521B7
:1011B00080F835100068016821F00101016000200D
:1011C000704790F8350070472DE9F84304464FF01A
:1011D0000009CDF8009063484FF41651A56D0068E2
:1011E000B0FBF1F72E6894F85C10082000FA01F1CA
:1011F00031420FD021680A6852070BD50A6822F0E5
:1012000004020A6094F85C108840A860606D40F0A9
:101210000100606594F85C104FF0010808FA01F0D5
:10122000304208D021684969090604D5A860606D7C
:1012300040F00200606594F85C1004208840304261
:1012400008D021680968890704D5A860606D40F05E
:101250000400606594F85C1010208840304218D07B
:1012600021680968090714D5A86020680168490346
:1012700004D50068000308D5A16C07E00168C90522
:1012800003D4016821F008010160216C09B12046F6
:10129000884794F85C1020208840304231D0216883
:1012A0000968C9062DD5A86094F83500052820687E
:1012B000016806D0490347D5006800031DD4616C5E
:1012C0001CE021F0160101602068416921F08001D5
:1012D0004161206C08B9A06C20B12068016821F040
:1012E0000801016094F85C103F208840A86084F8F1
:1012F000349084F83580216D1FE0E16B09B1204600
:101300008847606D00282BD0606DC00714D0052081
:1013100084F835002068016821F00101016000981F
:10132000401C0090B84203D820680068C007F6D17E
:1013300084F8349084F83580E16C002910D001B035
:101340002046BDE8F04308470168C905D5D40168C7
:1013500021F01001016084F8349084F83580CCE7E6
:10136000BDE8F8835C0000202DE9F041044600F060
:10137000AFF906465CB1002584F83450022084F8A9
:1013800035002068016821F0010101600DE00120B5
:10139000BDE8F08100F09CF9801B052805D92020CC
:1013A0006065032084F83500F2E720680068C00714
:1013B000F0D12268116820480140D4E901031843A4
:1013C000D4E903363343184363691843A3691843C8
:1013D000E3691843236A18430843616A042903D167
:1013E000D4E90B1319430843106020684069666A0A
:1013F00020F0070130460E43012704280CD1A06AD3
:101400000643E06A40B12046FFF754FC20B140207B
:10141000606584F83570BAE7206846612046FFF7BA
:1014200035FC94F85C203F2191408160656584F82B
:1014300035700020ACE700003F8010F02DE9F0414E
:101440000446866D90F83400002501280DD0012057
:1014500084F8340094F835700020012F07D084F808
:10146000340002252846BDE8F0810220FBE7022770
:1014700084F8357060652046FFF746FC94F85C10F0
:101480003F208840B0602068016841F0160101608B
:10149000206C20B12068016841F0080101602068DB
:1014A000016841F001010160DCE7000070B504460D
:1014B00000F00EF90546601C02D004480078044490
:1014C00000F006F9401BA042FAD370BD5000002086
:1014D0002DE9F84FDFF8B8A1002201250AF1040B2D
:1014E00003264FF00F090BF1040E00BF0B6805FA3D
:1014F00002F42340A3426FD10F7907F00307012FB5
:1015000001D0022F16D187684FEA420806FA08FC7C
:1015100027EA0C07D1F80CC00CFA08FC4CEA070CBF
:10152000C0F808C04768A7430C79C4F3001494407E
:101530003C4344600C79E443A4070AD0C4684FEAF2
:10154000420C06FA0CF7BC438F6807FA0CF72743E6
:10155000C7600C7904F00304022C12D1D40800EB0C
:10156000840CDCF820405707FF0E09FA07F824EA3C
:101570000804D1F8108008FA07F848EA0408CCF803
:10158000208004684FEA420C06FA0CF7BC430F793E
:1015900007F0030707FA0CF7274307604C68E400DD
:1015A00070D53C4C276847F480472760246822F0B8
:1015B000030704F480440094374C07EB040CDCF878
:1015C000084897074FEA177809FA08F7BC43334FE2
:1015D000B84202D1002724E054E0314FB84201D193
:1015E00001271EE02F4FB84201D1022719E02E4FEC
:1015F000B84201D1032714E02C4FB84201D104278F
:101600000FE02B4FB84201D105270AE0294FB8421D
:1016100001D1062705E0284FB84201D1072700E095
:10162000082707FA08F72743CCF80878DAF80040CB
:101630005746D1F804C09C435FEACC3C00D51C431C
:101640003C60DBF800405F46D1F804C09C435FEA91
:101650008C3C00D51C433C60DEF800407746D1F856
:1016600004C09C435FEACC2C00D51C433C60084F6F
:101670000C373C68D1F804C09C435FEA8C2C00D541
:101680001C433C60521C102AFFF430AFBDE8F88FB9
:10169000003C01404438024000300140000002405C
:1016A0000004024000080240000C0240001002400A
:1016B0000014024000180240001C0240006908406B
:1016C00000D0012070470AB1816170470904FBE72F
:1016D0000148806870470000500000207047704744
:1016E0002DE9F041026800245168C76A90F83E5025
:1016F00090F83D60102D1CD0402D1AD0036C002BAB
:101700007ED053694FF02805DB439F0779D4CF4340
:10171000BF0576D4016C01B1946990F83D30002189
:101720009D430B466ED0C91E516180F83C30BDE828
:10173000F081946953694FF42A0CDB435FEAC37E5E
:101740004FF02A4604D06745F1D0B742EFD010E001
:10175000CF43BF050DD4C16A614501D1012103E02A
:10176000C16AB14201D10821C162BDE8F04102F075
:1017700017B91E0715D4CE43B60512D4416CC9B2B1
:101780001161416B09B1C96B29B9816B0029CED0B8
:10179000C96B0029CBD00068416841F40061416009
:1017A000C5E79E0706D4CE43B60503D4BDE8F04195
:1017B00002F06AB8E443526864074FEA02521BD44D
:1017C000002AB4DB1A0608D4CA43520505D45A07C6
:1017D00005D5BDE8F04101F0FBBF5A07A7D4C943C6
:1017E0008905A4D4102D03D0BDE8F04102F01EB944
:1017F000BDE8F04101F0B2BF002A98DB5A0602E0D2
:1018000014E028E014E008D4CA43520505D45A076E
:1018100005D5BDE8F04101F069BE5A0787D4C94338
:10182000890584D4BDE8F04101F0F7BD946968E70B
:10183000556825F480655560E243540700D50121C1
:10184000120601D5828900E0028B80F83C3092B20A
:10185000FFF745FF6BE7DC0606D4CC43A40503D4B1
:10186000BDE8F04102F032B9212E27D0292E25D033
:101870005C0655D4CC43640552D45B0752D590F82E
:101880003D10438D002B8BD01269436A1A70426A57
:10189000521C4262428D521E4285428D002AD9D18D
:1018A0002A29D7D101684A6822F480624A6022213D
:1018B000016380F83D5000F0C9FB38E71C0623D4D3
:1018C000CC43640520D45B0720D590F83D10438DB0
:1018D000002BBFD0436A1B781361426A521C4262DC
:1018E000428D521E4285428D002AB3D12929B1D1A1
:1018F00001684A6822F480624A602121016380F80D
:101900003D5000F0A4FB12E75B07A3D4C94389054F
:10191000A0D4418D00299DD0416A097811610AE067
:101920005B0797D4C943890594D4418D002991D090
:101930001169426A1170416A491C4162418D491E18
:101940004185F4E67047000070B5040025D094F896
:101950003D00002520B984F83C50204600F01EFBD5
:10196000242084F83D002068016821F00101016015
:101970002068016841F4004101602068016821F499
:101980000041016000F098FC4D4A6168914201D825
:101990004C4900E04C49884201D2012070BD4B49BE
:1019A0002368B0FBF1F15E6826F03F060E435E60EF
:1019B0006368934206D94FF4967359434FF47A7390
:1019C000B1FBF3F12368491C1E6A26F03F06314340
:1019D00019626168914210D84900401EB0FBF1F2D3
:1019E000521CC2F30B02042A01D2042022E0B0FBF5
:1019F000F1F0401CC0F30B001CE0A268F2B301EB55
:101A0000C10303EB0116431EB3FBF6F35B1C43F467
:101A100080431B0549D092B301EBC10202EB0111D7
:101A2000401EB0FBF1F0401CC0F30B0040F48040BE
:101A300040F400402168CA694CF6FF739A43104392
:101A4000C861D4E9071001432068026822F0C0028F
:101A500011430160D4E9030101432068826848F220
:101A6000FF339A4311438160D4E90501084321689B
:101A7000CA6822F0FF021043C86001E00EE016E0E1
:101A80002068016841F0010101602564202084F88C
:101A90003D00256384F83E50002070BD01EB4106F7
:101AA000431EB3FBF6F35B1CB3E70120C2E701EB77
:101AB0004101401EB0FBF1F0401CC0F30B00B7E742
:101AC000A086010080841E0000093D0040420F00F6
:101AD00070477047704700002DE9F84F1F46904649
:101AE0008A460446DDF82890FFF7F2FD054694F893
:101AF0003D00202875D1192301226C49204600950C
:101B000002F0B8F80028F5D194F83C00012868D01C
:101B1000012084F83C0020680168C90703D10168EE
:101B200041F0010101602068016821F40061016059
:101B3000222084F83D00102084F83E000026266410
:101B4000C4F824806785608D20855948E0622B4663
:101B50004A465146204601F03DFD002878D1208DAF
:101B6000544F68B1012814D002282068016816D0AB
:101B700041F480610160206841698069009087E0DC
:101B80002068416981690091016841F40071016038
:101B90007EE02068016821F480610160F0E721F4B3
:101BA000806101602068016841F40061E2E7032878
:101BB00048D801280AD0022814D04B4600223946C2
:101BC0002046009502F056F8D8BB27E02A46494641
:101BD000204602F0CEF8A0BB20680069616A087058
:101BE0004DE061E04B46002239462046009502F068
:101BF00041F830BB2068016841F400710160206841
:101C00000069616A0870606A401C6062218D491E2B
:101C10002185618D491E618521682EE0206801685B
:101C200021F48061016020680069616A0870606A5F
:101C3000401C6062208D401E2085608D401E6085A6
:101C4000D0E705E02A464946204602F092F810B156
:101C50000120BDE8F88F20680069616A0870606A39
:101C6000401C6062218D491E2185618D491E618560
:101C700021684A69D24352070AD409690170606A2F
:101C8000401C6062208D401E2085608D401E608556
:101C9000208D00288BD1202084F83D0084F83E6000
:101CA00084F83C600020D4E70220D2E70200100054
:101CB0000000FFFF040001002DE9F84F1F46904689
:101CC0008A460446DDF82890FFF702FD054694F8A1
:101CD0003D0020287FD1192301224049204600954C
:101CE00001F0C8FF002876D194F83C00012872D09A
:101CF000012084F83C0020680168C90703D101680D
:101D000041F0010101602068016821F40061016077
:101D1000212084F83D00102084F83E00002626642F
:101D2000C4F824806785608D20852D48E0622B46AD
:101D30004A465146204601F0C3FC90B920684169EB
:101D40008069009036E02A464946204602F044F871
:101D500050B1206C042804D12068016841F400715E
:101D600001600120BDE8F88F606A21680078086191
:101D7000606A401C6062618D491E6185218D491E2B
:101D800089B2218522685369DB435B070BD451B1CB
:101D900000781061606A401C6062608D401E608542
:101DA000208D401E20852A464946204601F03CFFF2
:101DB0000028CED1208D0028C5D154F83D0B0168F4
:101DC00041F400710160202004F81E09E67766776F
:101DD0000020C7E7FFE70220C4E700000200100070
:101DE0000000FFFF70477047F8B50024DDE9067674
:101DF000009490F83D50202D60D1314D46F2A81C42
:101E00002D68B5FBFCF505EBC50C0CEB0515009535
:101E10006D1E009506D00568AD69ED43AD070DD484
:101E2000009DF5E740F8304F20214173847301692C
:101E300041F02001016104730120F8BD90F83C508D
:101E4000012D3BD0012580F83C500568D5F800C035
:101E50005FEACC7C05D1D5F800C04CF0010CC5F888
:101E600000C00568D5F800C02CF4006CC5F800C0AF
:101E7000222580F83D50402580F83E50046447629A
:101E80004685458D05850F4DC56241648264C364F6
:101E9000046501680A6842F480620A6001680A68A1
:101EA00042F480720A6080F83C40018D21B10068E4
:101EB000416841F4E06141600020F8BD0220F8BDB6
:101EC0005C0000200000FFFFF8B50024DDE9067685
:101ED000009490F83D50202D59D12E4D46F2A81C6B
:101EE0002D68B5FBFCF505EBC50C0CEB0515009555
:101EF0006D1E009506D00568AD69ED43AD070DD4A4
:101F0000009DF5E740F8304F20214173847301694B
:101F100041F02001016104730120F8BD90F83C50AC
:101F2000012D34D0012580F83C500568D5F800C05B
:101F30005FEACC7C05D1D5F800C04CF0010CC5F8A7
:101F400000C00568D5F800C02CF4006CC5F800C0CE
:101F5000212580F83D50402580F83E5004644762BA
:101F60004685458D05850C4DC56241648264C36418
:101F7000046501680A6842F480720A6080F83C4097
:101F80000068416841F4E06141600020F8BD022032
:101F9000F8BD00005C0000200000FFFF70B586B0B7
:101FA000064614216846FEF745F923493068884201
:101FB00040D122480025016841F00201016000681B
:101FC000694600F002000590C020009012200190A8
:101FD0000120029003200390042004901848FFF78A
:101FE00077FA16481030016841F40011016000686A
:101FF000154C00F400100590124820604005C4E91B
:102000000105C013C4E9035080106561C4E906509E
:10201000256220466562FFF7A7F908B1FEF789FE41
:10202000B463002211461F20A66300F079F81F2038
:1020300000F068F806B070BD00540040303802402F
:102040000004024010600240EC26002070477047F8
:102050000248816802781144816070475000002076
:102060000B4810B5016841F400710160016841F44A
:1020700080610160016841F480710160032000F01B
:102080006FF8002000F006F800F024F8002010BDE2
:10209000003C024070B50D4D04464FF47A7128782B
:1020A000B1FBF0F00A490968B1FBF0F000F0CAFD9D
:1020B00048B9102C07D200222146501E00F030F8FB
:1020C00000206C6070BD012070BD00005000002039
:1020D0005C0000200A4808B5016841F480410160B5
:1020E000006800F4804000900548001F016841F03E
:1020F00080510160006800F08050009008BD000031
:1021000044380240002809DB00F01F020121914001
:102110004009800000F1E020C0F800117047000085
:10212000F0B40E4B1B680C46C3F30223C3F1070542
:10213000042D00D90425191D072901D2002300E030
:10214000DB1E012606FA05F1491E214099409E40FA
:10215000761E16403143F0BC02F0B4BD0CED00E039
:10216000064900F0070208684FF6FF03184040EAEE
:102170000220034A10430860704700000CED00E0A5
:102180000000FA052DE9F0470E46050065D0DFF89E
:102190001481D8F80000F7B200F00700B04207D26F
:1021A00088F80070D8F8000000F00700B04254D161
:1021B00028683D4C810712D5400703D5206840F4BC
:1021C000E05020602878000703D5206840F4604084
:1021D00020602068A96820F0F0000843206028787B
:1021E000C0072DD0304968680839012812D002286C
:1021F00013D0032811D00968890700292DDA216836
:1022000021F0030101432160FFF762FA814641F2A8
:10221000883A0EE009688903EFE709688901ECE76D
:10222000FFF756FAA0EB0901514502D90320BDE89A
:10223000F0872068696800F00C00B0EB810FEFD1E7
:10224000D8F80010404601F00701B14207D90770E5
:10225000006800F00700B04201D00120E7E72878CD
:10226000400705D52068E96820F4E0500843206065
:102270002878000706D52068296920F4604040EAE4
:10228000C100206000F038F82168084AC1F303114A
:10229000515CC8400649086006480068FFF7FAFE2E
:1022A0000020C4E7003C024008380240D07A000811
:1022B0005C000020540000200448054900680968BB
:1022C000044AC1F38221515CC84070475C00002081
:1022D00008380240E07A00080448054900680968A7
:1022E000044AC1F34231515CC84070475C00002091
:1022F00008380240E07A0008154810B5006810F070
:102300000C02144813D04110042A0FD0082A0ED111
:102310000F4C241F2268236802F03F025B0207D59E
:102320002068C0F38810A0FB010106E0084610BD3C
:102330002168C1F38811A1FB00010023FDF742FFD2
:102340002168C1F30141491C4900B0FBF1F010BD07
:10235000083802400024F4002DE9F84F04006ED044
:102360002078DFF84C93C007A9F104054AD009F1A1
:1023700004000168C1F38101012908D00068C0F39D
:10238000810002280AD1D9F80000400206D5286849
:10239000800337D560680028E1D033E06068B0F58D
:1023A000803F10D0B0F5A02F286810D020F48030E6
:1023B0002860286820F4802028606068A8B1FFF7B2
:1023C00087F906460DE0286840F48030F4E740F4D1
:1023D00080202860F7E700BFFFF77AF9801B6428A8
:1023E00073D828688003F7D50CE0FFF771F906462B
:1023F00005E000BFFFF76CF9801B6428F0D828685F
:102400008003F7D42078DFF8AC8280074FF0000A11
:102410003ED5A748001D016811F00C0F08D00068D8
:10242000C0F3810002280BD1D9F80000400207D484
:102430002868800716D5E068012800D112E033E152
:10244000E068B8B10120C8F80000FFF741F906467E
:1024500005E000BFFFF73CF9801B0228C0D82868C0
:102460008007F7D52868216920F0F80040EAC1000C
:1024700028600DE0C8F800A0FFF72AF9064604E03E
:10248000FFF726F9801B02281FD828688007F7D499
:102490002078000722D5864F87486169703771B16F
:1024A00001210160FFF714F9064604E0FFF710F977
:1024B000801B022809D838688007F7D50EE0C0F8DD
:1024C00000A0FFF705F9064605E082E0FFF700F9F6
:1024D000801B02287DD838688007F7D42078400711
:1024E00068D5DFF8CCB100270BF13C0BDBF800001E
:1024F000C0000BD4DBF8001041F08051CBF8001085
:10250000DBF80000012700F0805000906B4E30682F
:10251000C00510D4306840F480703060FFF7D8F800
:10252000009005E0FFF7D4F80099401A022850D82F
:102530003068C005F6D55E4EA0686C3601280FD015
:102540000528306810D020F001003060306820F09D
:1025500004003060A068B8B1FFF7BAF800900FE04F
:10256000306840F00100F4E740F004003060F7E725
:10257000FFF7AEF80099411A41F28830814266D8DF
:1025800030688007F4D50EE0FFF7A2F8009007E06E
:10259000FFF79EF80099411A41F28830814256D8DF
:1025A00030688007F4D42FB1DBF8001021F080519F
:1025B000CBF80010A069C8B33D49091D0968C1F3F3
:1025C000810102294AD00228504607D0C8F860008D
:1025D00000E03CE0FFF77CF804463BE04746C8F8E3
:1025E0006000FFF775F8064605E000BFFFF770F8DA
:1025F000801B02282BD828688001F7D4D4E9070172
:102600000843A16A2E4A490802EB0141626A41EA85
:102610008211084394F82C1040EA0161C9F80010B7
:1026200001203866FFF754F8044606E03EE000BF9C
:10263000FFF74EF8001B022809D828688001F7D55B
:1026400034E000BFFFF744F8001B022802D9032042
:10265000BDE8F88F28688001F4D427E00128F7D07E
:10266000D9F80000E26900F4800191421CD1226A8D
:1026700000F03F01914217D147F6C071626A0140F4
:10268000B1EB821F10D1A26A4FF0FF3300F440314A
:1026900003EB5202B1EB024F06D194F82C1000F07C
:1026A0007060B0EB016F01D00120D1E70020CFE7CF
:1026B0000438024000004742800E4742007000404C
:1026C0000000FFFF704790F85100704738B501686F
:1026D00004464A688868C043430606D5C30704D148
:1026E000D3435B0601D4216C05E0830708D4D343B0
:1026F0001B0605D4616C01B02046BDE83040084798
:10270000830603D5430601D5C30551D4D3439B06A5
:102710004ED443060AD494F85130032B49D0636D4C
:1027200043F004036365CB688B680093830609D488
:10273000636D43F0010363658B6800930B6823F0BE
:1027400040030B60C00506D4606D40F00800606572
:10275000206880680090606D002829D0206841685A
:1027600021F0E0014160012084F85100900701D47C
:10277000D00722D02068416821F003014160114D4B
:10278000E06C40B10565E06CFEF709FD18B1606DC5
:1027900040F040006065A06C002809D00565A06C81
:1027A000FEF7FDFC002803D0606D40F0400060653E
:1027B00038BDC8688868009038BD2046FFF782FFA2
:1027C00038BD0000E145000870B5040009D0606A1A
:1027D000002540B125616561A56294F8510040B1C2
:1027E0000CE0012070BD6068B0F5827FF4D0E56137
:1027F000F2E784F85050204600F044F8022084F8B4
:1028000051002068016821F040010160A088218901
:1028100000F4827001F404410843A18901F40061CD
:102820000843217C01F002010843217D01F00101F0
:102830000843218B01F400710843217F01F0380126
:10284000084394F8201001F080010843218D01F421
:102850000051084321680860A069042101EA104082
:1028600094F8241001F010010843216848602068A2
:10287000C16921F40061C1616565012084F85100DE
:10288000002070BD10B586B0044614216846FDF7DF
:10289000D1FC17492068884228D1164800210268D7
:1028A00042F480520260006800F4805005901148A4
:1028B0001438026842F001020260006800F0010072
:1028C0000590E02000900220CDE901010320039053
:1028D0000520049069460848FEF7FAFD00221146DB
:1028E0002320FFF71DFC2320FFF70CFC06B010BDD2
:1028F0000030014044380240000002402DE9F84F0A
:10290000044690F8500000271D46164689460128C7
:102910000DD04FF0010B84F850B0FEF7D9FE804681
:1029200094F85100BA46012804D0022793E002200F
:10293000BDE8F88FB9F1000F73D0002E71D00320DD
:1029400084F85100C4F854A0C4F83090A686E686F6
:10295000C4F838A0A4F83CA0A4F83EA0C4F844A051
:10296000C4F840A0A068B0F5004F09D12068016804
:1029700021F0400101602068016841F4804101605C
:1029800020680168490603D4016841F040010160F4
:10299000E068B0F5006F606803D030B3012E24D03A
:1029A00041E008B1012E1CD1206B21680088C8606D
:1029B00006E020688168890709D5216B0988C16014
:1029C000206B801C2063E08E401EE08609E0FEF74D
:1029D0007FFEA0EB0800A84202D3681C01D031E0C2
:1029E0007DB3E08E0028E4D120E0206B21680078E0
:1029F000087306E020688168890709D5216B09788A
:102A00000173206B401C2063E08E401EE0860AE0CC
:102A1000FEF75EFEA0EB0800A84203D3681C02D0BC
:102A200010E017E06DB1E08E0028E3D14246294660
:102A3000204601F0DDFD08B120206065A06818B1D6
:102A400006E0FFE7032706E02068C1688068009081
:102A5000606D00B1012784F851B084F850A0384669
:102A600066E72DE9F84F044690F8500000270A9ECB
:102A70001D4692468B464FF0010901280ED00120D9
:102A800084F85000FEF724FE804694F851006168F7
:102A900001280CD0B1F5827F07D102E00220BDE809
:102AA000F88FA16809B9042801D00227C2E0BBF160
:102AB000000F27D0BAF1000F24D01DB394F85100B5
:102AC000042802D0052084F8510000206065C4F875
:102AD00038A0E587A587C4F830B0E586A5862064D0
:102AE000606420680168490603D4016841F0400130
:102AF0000160E068B0F5006F606805D0E8B3012DB3
:102B000046D07FE0012795E008B1012D39D1206B37
:102B100021680088C860206B801C2063E08E401E06
:102B2000E0862EE02068816889070FD5E18E69B1C3
:102B3000B9F1010F0AD1216B0988C160206B801C9B
:102B40002063E08E401EE0864FF000092068816817
:102B5000C9070CD0E18F51B1C068A16B0880A06B90
:102B6000801CA063E08F401EE0874FF00109FEF754
:102B7000AFFDA0EB0800B04200E009E001D3701CFB
:102B800050D1E08E0028CDD1E08F0028CAD13FE09F
:102B9000206B216800780873206B401C2063E08E56
:102BA000401EE0862EE02068816889070FD5E18EFF
:102BB00069B1B9F1010F0AD1216B09780173206B5A
:102BC000401C2063E08E401EE0864FF00009206824
:102BD0008168C9070CD0E18F51B1C068A16B087042
:102BE000A06B401CA063E08F401EE0874FF00109FE
:102BF000FEF76EFDA0EB0800B04202D3701C01D0BE
:102C000010E07EB1E08E0028CDD1E08F0028CAD13F
:102C100042463146204601F0EBFC28B10127202036
:102C2000606507E0032705E0A06818B92068C1685F
:102C300080680090012084F85100002084F8500042
:102C400038462CE710B5401EB0F1807F01D301203B
:102C500010BD4FF0E02460610F21601702F032F8E0
:102C60000020A06107202061002010BD70B590F801
:102C70003C20012A32D0012480F83C40022280F816
:102C80003D2003685A689D6822F070060A68324346
:102C90005A60134B02689A4214D0B2F1804F11D09F
:102CA000104B9A420ED0104B9A420BD00F4B9A42C7
:102CB00008D00F4B9A4205D00E4B9A4202D00E4BD1
:102CC0009A4204D1496825F080031943916080F845
:102CD0003D40002180F83C10084670BD022070BDC8
:102CE000000001400004004000080040000C0040CB
:102CF00000040140004001400018004010B50400ED
:102D000003D094F83D0010B107E0012010BD002071
:102D100084F83C00204600F01FF8022084F83D00B3
:102D2000211D206801F0A6FD012084F8460084F8EA
:102D30003E0084F83F0084F8400084F8410084F8A5
:102D4000420084F8430084F8440084F8450084F885
:102D50003D00002010BD000008B50068064988420B
:102D600008D10648016841F010010160006800F0D8
:102D70001000009008BD00000010004040380240E4
:102D800090F83D10012901D001207047022180F800
:102D90003D1000681149884214D0B0F1804F11D025
:102DA0000F4988420ED00F4988420BD00E49884205
:102DB00008D00E49884205D00D49884202D00D49FD
:102DC000884204D1816801F00701062903D0016817
:102DD00041F0010101600020704700000000014047
:102DE0000004004000080040000C004000040140C6
:102DF000004001400018004070477047F8B5026875
:102E000004461068D168536910F00F0F4FF00005A9
:102E100053D003F0010601F4907737435FD0C20727
:102E200005D0CA0503D5226C42F001022264420794
:102E300005D5DA0703D0226C42F002022264820731
:102E400005D5DA0703D0226C42F00402226402079F
:102E500007D501F02002324303D0226C42F0080271
:102E60002264226C002A34D0800604D5880602D55C
:102E7000204601F0EBFD20684069216CC0F3801012
:102E8000090700D430B3204601F0BFFD2068416936
:102E900049061BD5416921F040014161A06BA8B1F1
:102EA00059490165A06BFEF77AF9002811D0A06B93
:102EB000016D01B0BDE8F040084783060FD58B06D1
:102EC0000DD52046BDE8F84001F0C0BD2046FFF713
:102ED00094FFF8BD2046FFF790FF2564F8BD266BF0
:102EE0002023012E53D1C60651D5CE064FD51068EA
:102EF00050680090506940062BD5A16B0868406867
:102F00000004000CEAD0A68D8642E7D9E085C869A6
:102F1000B0F5807F18D0D06820F48070D060206831
:102F2000416921F0010141612068416921F04001BE
:102F3000416184F83E3025632068C16821F01001AA
:102F4000C160A06BFEF7E4F8A08DE18D401A81B25C
:102F500019E0A08DE18D401A81B2E08D0028BDD02E
:102F60000029BBD0D06820F49070D06020684269FE
:102F700022F00102426184F83E3025632068C26875
:102F800022F01002C2602046FFF736FFF8BD0506AA
:102F90002BD50D0629D594F83D002128F6D1A0683F
:102FA000B0F5805F01D12069B0B1206A411C216277
:102FB000216800784860E08C401E0004000CE0842A
:102FC000E4D12068C16821F08001C1602068C16837
:102FD00041F04001C160F8BD206A0088C0F30800DC
:102FE0005060206A801C2062E5E74006F3D5480661
:102FF000F1D5D168204621F04001D16084F83D3000
:1030000000F0E2F8F8BD00003D49000870B504008A
:1030100004D094F83D00002510B106E0012070BDF9
:1030200084F83C50204600F023F8242084F83D002A
:103030002068C16821F40051C160204601F05EFDA6
:103040002068016921F4904101612068416921F003
:103050002A0141612068C16841F40051C1602564C2
:10306000202084F83D0084F83E00002070BD000060
:103070002DE9F04387B0064614216846FDF7DAF8DB
:1030800030493068884259D12F480024016841F402
:1030900080210160006800F4802005902A481038E3
:1030A000016841F0020101600068694600F0020019
:1030B00005904FF4406000900220CDE90104032008
:1030C0000390072004902148FEF702FA214D204882
:1030D0004FF000672860C5E901744FF48068C5E9C6
:1030E00003484FF480796C61C5E906492C62284693
:1030F0006C62FEF739F908B1FDF71BFEB563AE63EC
:103100001348154D3030E5E802074020A5E81101CD
:10311000114845F81449C5E906492C626C62FEF76E
:1031200023F908B1FDF705FE75630022114627203B
:10313000AE63FEF7F5FF2720FEF7E4FF07B0BDE81A
:10314000F083000000480040403802400004024084
:10315000286002404C270020AC27002090F83E3029
:10316000202B0ED159B152B190F83C30012B08D030
:10317000012380F83C300023036301F045BD0120AA
:103180007047022070477047704790F83D30202B01
:1031900018D1A9B1A2B190F83C30012B12D0016234
:1031A0008284C28400210164212280F83D2080F8BD
:1031B0003C100068C16841F08001C1600020704788
:1031C00001207047022070477047FEE70148FEF774
:1031D00087BA0000DC00002038B5806B002190F831
:1031E0003D202B4B46F2A8141B68B3FBF4F3C3EB52
:1031F000C30303EB830300933BB15B1E009303689F
:103200001B689B0505D5009BF6E7036C43F0200384
:103210000364436B03B1D963836B03B1D963036860
:103220001C6824F480641C604185436B03B11965FC
:10323000836B03B1196503681C6824F001041C60EA
:1032400090F83D402023602C0BD0282434EA020261
:103250000FD080F83D3080F83E1000BFFEF772FBC3
:1032600038BD80F83D3080F83E100164FEF736FA34
:1032700038BD0268136843F00103136002681368E5
:1032800043F480631360016380F83D40E6E700008B
:103290005C00002070B5044690F83D0094F83E10A4
:1032A000102901D0402906D1222804D121680A68BA
:1032B00022F400620A60282131EA00024FF0000582
:1032C0004FF0200626D021684968090505D46028FA
:1032D00003D084F83D6084F83E502563206841683F
:1032E000090537D5416821F400614160606B90F8B1
:1032F00035203C49012A11D00165606BFDF74FFF75
:1033000038B32068016821F00101016084F83D6054
:10331000606B1CE0256384F83D10DFE7A06B01655E
:10332000A06BFDF73CFFA0B120684169C943490685
:1033300005D40069616A0870606A401C6062206898
:10334000016821F00101016084F83D60A06B016D0E
:10335000884710E094F83D10602910D04169C943B6
:10336000490605D40069616A0870606A401C6062A1
:103370002046FEF7E7FA206CC1071CD115E084F85F
:103380003D6025644169C943490605D40069616A05
:103390000870606A401C60622068016821F00101C9
:1033A00001602046FEF79AF9E5E7810703D441075B
:1033B00001D4000704D52068416821F4E061416030
:1033C00094F83D00216C49070BD5282809D10648FF
:1033D000E062256384F83D6084F83E502046FEF7A5
:1033E00077FB70BDD93100080000FFFF01684A6912
:1033F000D24352050FD46FF480624A61002140F835
:10340000301F202242738173026942F0040202617C
:103410000173012070470020704710B5C26A438DC8
:103420000168042B06D0438D032B08D0438D022B5B
:103430001DD012E04A6822F480624A600CE04B68BA
:1034400023F480634B60042A06D0022A04D001686A
:103450000A6822F480620A6001680969426A117090
:10346000416A491C4162418D491E418510BD012AB6
:1034700030D0102A2ED0042A30D0022A2ED00A684A
:1034800042F400720A6001680969426A1170416A77
:10349000491C4162428D521E4285026812690A70BF
:1034A000416A491C4162418D491E418501684A6853
:1034B00022F440724A60202180F83D1090F83E20AE
:1034C0000021402A80F83E100CD012210163FEF743
:1034D00000FB10BD0A6822F48062D3E70A6842F458
:1034E0008062CFE70163FEF77DFC10BD38B590F830
:1034F0003D10222914D1418D032912D9016809698F
:10350000426A1170416A491C4162418D491E4185E0
:10351000418D032904D10068416821F48061416034
:1035200038BDC26A022AFBD0012901D00029F7D197
:10353000274946F2A81300220968B1FBF3F101EB19
:103540008101009101682023009C641E009422D018
:103550000C68A405F8D40C6824F480640C6001683D
:103560004C6824F4E0644C6001680969446A217085
:10357000416A491C4162418D491E418580F83D30B8
:1035800090F83E1080F83E2040291DD012210163A2
:10359000FEF79FFA38BD046C44F0200404644C68C4
:1035A00024F4E0644C6001680969446A2170416A4E
:1035B000491C4162418D491E418580F83D3080F8AB
:1035C0003E20FEF7BFF938BD0263FEF70BFC38BDA5
:1035D0005C0000202DE9F84F0446C06A1E46934661
:1035E0000D4621680A6842F480620A60082807D004
:1035F000012805D010F5803F02D0206B112804D19E
:103600002068016841F4807101604FF001195B4648
:10361000002249462046009600F02CFB4FF400782B
:1036200040B120680068C00501D5C4F8408003207F
:10363000BDE8F88F2069DFF884A0B0F5804F0FD087
:103640000620216800EAD51747F0F00008613346EC
:103650005A460AF10601204600F040FB58BB03E041
:10366000E8B240F001001CE02168E8B2086133468E
:103670005A465146204600F031FBE0B920684169C6
:1036800081690091016841F4807101605B4600220C
:1036900049462046009600F0EDFA0028C1D147F0D7
:1036A000F1002168086133465A465146204600F031
:1036B00015FB0028BCD00120BAE700000200010081
:1036C000F8B50446C06A1E460D461746082807D0BE
:1036D000012805D010F5803F02D0206B122804D1BC
:1036E0002068016841F480710160134600224FF0A8
:1036F00001112046009600F0BDFA40B12068006834
:10370000C00502D54FF4007020640320F8BD206985
:10371000B0F5804F0ED00620216800EAD51040F0A9
:10372000F000086133463A460B49204600F0D6FACD
:1037300078B902E005F0FE0000E0E8B22168086117
:10374000054933463A46891F204600F0C7FA00284B
:10375000DCD00120F8BD00000800010010B5C16AEE
:1037600090F83D20212A0BD1428D52B1416A026866
:1037700009781161416A491C4162418D491E4185A8
:1037800010BD00222023082910D020290ED011F5C9
:10379000803F0BD001684C6824F4E0644C60112138
:1037A000016380F83E2080F83D300EE001684C68EF
:1037B00024F4E0644C6001680C6844F400740C600C
:1037C000026380F83D3080F83E20FEF783F910BD9B
:1037D00010B590F83D1090F83E30C26A048DB4B137
:1037E000212903D0402B11D122290FD1418DE1B3E2
:1037F00090F83E10402942D0416A02680978116170
:10380000416A491C4162418D491E418510BD2129F3
:10381000E8D120230021082A13D0202A11D012F544
:10382000803F0ED00268546824F4E0645460112292
:10383000026380F83E1080F83D3000BFFEF74AF981
:1038400010BD0268546824F4E0645460026814688F
:1038500044F400741460016380F83D3090F83E2019
:1038600080F83E10402AE9D100E002E0FEF7BBFA02
:1038700010BD0068416821F48061416010BDBDE861
:10388000104000F0D3B8000078B590F83E50C26AFE
:10389000036B90F83D6000240168222E7AD1066DFA
:1038A0000EB9402D76D0056D1DB90569B5F5404FAF
:1038B00009D0458D05B3468D384D012E0ED0438D70
:1038C000022B3AD05DE04A698A6900920A6842F4A4
:1038D00080720A60016D491C016578BDAA4213D14E
:1038E0000A6822F480620A6001684A68120503D5FA
:1038F0000A6822F4806216E04A698A6900920A68BE
:1039000042F400720A6039E0082A10D0202A0ED052
:10391000122B0AD0042A03D0022A01D0102AE7D1A0
:103920000A6842F480620A6024E0012AE0D00A6852
:1039300022F480620A600168DEE7042A21D0022AAC
:103940001FD0102A1DD00B6823F480630B60016820
:103950000B6843F400630B6001684B681B0509D5D5
:10396000AA4212D0012A10D0082A0ED0102A0CD058
:10397000202A0AD001684A6989690091046578BDE6
:1039800008E00B6843F48063E5E74A6842F480523C
:103990004A60EFE7486988690090F0E70000FFFFA0
:1039A00090F83E10402910D00169B1F5804F19D030
:1039B000016DA9B3016D012910D1416C5FF0F102D5
:1039C00001F4407142EAD11106E0016D0029416C19
:1039D00005D0C9B241F0010100680161704701F0F2
:1039E000FE01F9E790F83D102129416C09D0C9B2D8
:1039F00041F0010102681161416B29B1C96B49B9FC
:103A000002E001F0FE01F5E7816B0029E6D0C96B09
:103A10000029E3D00068416841F4006141607047CB
:103A2000FFE7416CF02201F44071CBE710B590F84C
:103A30003D10026D22B3026D012A2FD0026D022AC1
:103A40001DD1222931D0428D0AB1212933D0428D96
:103A5000002A14D1212912D101684A6822F4E062B7
:103A60004A6001680A6842F400720A60002101633A
:103A7000202280F83D2080F83E10FEF7B4F910BDFA
:103A8000C16C0129816C02D0C1F3072108E00268F2
:103A9000C9B21161016D891C016510BD816CC9B28B
:103AA00002681161016D491CF6E70068016841F484
:103AB0008071016010BD416A026809781161416A34
:103AC000491C4162418D491E418510BDF8B590F8F1
:103AD0003D6004460068416821F4E061416020686F
:103AE000002541690091016841F0010101602068F1
:103AF000016821F48061016020684168090520D5D2
:103B0000474F222E48D02A2E46D0616B096849685B
:103B10006185618D19B1216C41F004012164416816
:103B200021F400614160606BFDF74BFB012808D078
:103B3000606B0765606BFDF732FB10B1606B016D68
:103B40008847608D08B320684169C943490708D494
:103B50000069616A0870606A401C6062608D401E86
:103B6000608520684169C943490608D40069616AD3
:103B70000870606A401C6062608D401E6085608DC8
:103B800018B1206C40F004002064206C00B3204683
:103B9000BDE8F840FFF77EBBA16B09684968618505
:103BA000618D19B1216C41F004012164416821F457
:103BB00000614160A06BFDF704FB0128C1D0A06B40
:103BC0000765A06BFDF7EBFA0028BAD0A06BB6E74B
:103BD0002A2E06D12563282084F83D002046FEF7D2
:103BE00035FA94F83D10202028290DD0216B222988
:103BF00001D0222E07D1256384F83D0084F83E5081
:103C00002046FEF723FAF8BD0649E162256384F8F1
:103C10003D0084F83E502046FDF75AFFF8BD0000F5
:103C2000D93100080000FFFF70B516460D46044666
:103C30000DE02046FFF7DAFB08B1012070BD681CDB
:103C400005D0FDF745FD801BA84207D835B1206897
:103C50004069C0434007ECD4002070BD002044F808
:103C6000300F20216173A073216941F0200121618F
:103C70002073E2E72DE9F0471E4690460D460446C4
:103C8000C1F30747DDF8209008E0701C06D0FDF76F
:103C90001FFDA0EB0900B0420FD876B12068012FBC
:103CA00018D0806925EA00000004000C14D000211F
:103CB0004145EAD00020BDE8F087002044F8300FED
:103CC00020216173A073216941F0200121612073DB
:103CD0000120F0E74069E5E70121E9E72DE9F04738
:103CE0009A4691460E46044600254FF02008C1F33F
:103CF000074725E020684069C043400514D4206888
:103D0000016841F40071016021686FF480604861CE
:103D1000256384F83D8084F83E50206C40F0040018
:103D2000206484F83C501FE0B9F1FF3F08D0FDF754
:103D3000CFFCA0EB0A0149450CD8B9F1000F09D01E
:103D40002068012F13D0806926EA00000004000CCF
:103D50000BD0CFE744F8305F84F80D80A57320695D
:103D600040F02000206125730120BDE8F087406904
:103D7000EAE72DE9F041002590460E46044620274B
:103D800017E04069C043C0060CD454F8301B6FF0F4
:103D90001000486144F810596777A577206A2062BF
:103DA000257717E0FDF794FCA0EB0800B04208D897
:103DB0003EB120684169C9434906E2D40020BDE80C
:103DC000F08144F8305F6773A573206940F02000EC
:103DD000206125730120F2E770B516460D460446B2
:103DE0000DE02046FFF702FB08B1012070BD681C02
:103DF00005D0FDF76DFC801BA84207D835B12068BF
:103E00004069C0430006ECD4002070BD002044F897
:103E1000300F20216173A073216941F020012161DD
:103E20002073E2E71FB5002116480091019102912D
:103E3000134A0391026001244FF480320461C0E907
:103E40000121047680F820100F4AC0E90A21C461DC
:103E5000C16080F830404461FDF739F808B172B6AE
:103E6000FEE70420CDE900040720029069460548DA
:103E7000FCF784FF002801D072B6FEE71FBD0000EA
:103E800000200140940000200100000F194808B5EF
:103E9000016841F480010160016801F48001009132
:103EA000016841F4001101600068002200F4001074
:103EB000009011460B20FEF733F90B20FEF722F994
:103EC000002211460C20FEF72BF90C20FEF71AF900
:103ED000002211460E20FEF723F90E20FEF712F9FC
:103EE000002211463820FEF71BF9BDE808403820B3
:103EF000FEF708B93038024010B504490448FCF711
:103F00001AFF0249491E087010BD0000450000203C
:103F1000300000202DE9F04186B014216846FCF7FE
:103F200089F924480025016841F080010160016899
:103F300001F080010591016841F001010160016813
:103F400001F001010591016841F002010160006882
:103F5000194F00F002000590002204213846FDF7B9
:103F6000B2FB012208213846FDF7ADFBDFF84C809B
:103F7000002201214046FDF7A6FB022601240096FF
:103F8000CDE9015469463846FDF7A2FA0C20CDE987
:103F90000004CDE9024669463846FDF799FA0094D7
:103FA000CDE90145694640460395FDF791FA06B013
:103FB000BDE8F081303802400000024000040240B9
:103FC0000F4810B50D4901604FF482714160002126
:103FD0008160C1604FF400720161C0E905121022D6
:103FE000C0E90721416281620A21C162FEF7ECFB50
:103FF000002801D072B6FEE710BD0000003001407D
:1040000030010020FEE7FEE77047000006484178D7
:1040100011B14178491E41708178002902D0817820
:10402000491E817070470000490000207CB541F6B0
:10403000FF75FCF78DFD0024FF2000F01FFB641CC2
:104040000A2CF9DB00F0BEFA40208DF800000020B9
:104050008DF801008DF802008DF803008DF8040042
:1040600095208DF8050000246E46305D00F006FBBB
:10407000641C062CF9DB00E06D1E00F0E5FA012857
:1040800001D0002DF8D1FCF763FDFF2000F0F6FA17
:104090000149012048707CBD4C00002010B5064C41
:1040A0003220207000F0D0FA00F0CEFAFF2802D0C3
:1040B00021780029F8D110BD4B0000202DE9F041F6
:1040C000114D04460A200E4685F8000000F0BCFAA7
:1040D000FF2804D0FE2806D00020BDE8F081287813
:1040E0000028F3D1F8E72746651C00F0ADFA3870D8
:1040F0006C1C00F0A9FA2870B61EF4D100F0A4FAE6
:1041000000F0A2FA0120E8E74A00002070B50C4652
:104110000546FFF7C3FFFF2801D0FF2070BD2846EA
:1041200000F0ACFA200E00F0A9FAC4F3074000F04A
:10413000A5FAC4F3072000F0A1FAE0B200F09EFA5D
:104140000020402D06D0482D06D000F097FA4C2DC7
:1041500006D007E0952000E0872000F08FFA01E00C
:1041600000F072FA5FF00A0400F06EFA0106D5D58D
:10417000641E14F0FF04F7D170BD000070B50E4648
:1041800004460025FFF78AFFFF2828D1304600F0BB
:1041900075FAFD2E1FD00026207800F06FFA6078A7
:1041A000A41C00F06BFA761E16F0FF06F4D100F0A6
:1041B0004BFA00F049FA00BF00F046FA044600F05E
:1041C0001F00052803D06D1CEDB2402DF4D900F07E
:1041D0003BFA0028FBD004F01F00052801D0002086
:1041E00070BD012070BD00002DE9F84310B1012021
:1041F000BDE8F883DFF8208198F80000800702D539
:1042000098F80000F4E7FFF711FF00F0DBF9002455
:1042100021464020FFF77AFF01286CD13F4E6420F1
:1042200030704FF4D5714820FFF770FF01280DD092
:1042300000217720FFF76AFF01283ED8002169207E
:10424000FFF764FF012838D802243DE000256F46BF
:1042500000F0FAF978556D1CEDB2042DF8D39DF8F5
:104260000200012847D19DF80300AA2843D1450741
:1042700000217720FFF74AFF012804D8294669204A
:10428000FFF744FF10B130780028F1D1307890B3B7
:1042900000217A20FFF73AFF68BB002400F0D4F930
:1042A0003855641CE4B2042CF8D39DF80000400695
:1042B00001D506241FE002241DE0012401E0022CA8
:1042C00002D00021412007E000217720FFF71EFFE8
:1042D000012804D800216920FFF718FF10B13078B9
:1042E0000028ECD1307828B14FF400715020FFF74E
:1042F0000DFF00B10024454688F80240FCF728FC79
:1043000000F0A2F924B1287820F00100287001E023
:104310000020687028786BE74C0000204A000020DD
:104320007FB515460E4610B1042004B070BD0124BF
:104330004B48052E04D00078C00715D00320F4E7C1
:1043400047492A7849782AB1012A07D0022A08D099
:10435000042482E031B10021417003E0FFF766FEE2
:1043600000E06970002478E000F02CF90B2E52D0A8
:1043700005DCE6B3012E07D0022E69D142E00C2EF7
:104380004CD00D2E64D155E000214920FFF7BEFE30
:1043900070BB10216846FFF791FE48B39DF80010EE
:1043A0000120B0EB911F0AD19DF808209DF809105B
:1043B00000EB0220084400048009286038E09DF8E2
:1043C00005009DF80A1000F00F0000EBD1109DF8D9
:1043D00009109DF8072001F0030100EB41009DF852
:1043E0000810890901EB82019DF8062001E00DE02B
:1043F0002FE002F0030201EB8221C01F491C814023
:10440000296015E04FF40070288011E0FFF746FEA8
:10441000FF280DD01DE00021492001E000214A20A5
:10442000FFF774FEA8B910212846FFF747FE80B1B8
:1044300000240EE000217A20FFF768FE40B9002436
:1044400000F002F9641CE4B205F8010B042CF7D368
:104450000424FCF77DFB00F0F7F8204665E7000038
:104460004C0000202DE9F0411C4615460E4638B997
:1044700034B121480178C90704D00320BDE8F08198
:104480000420FBE78078400700D4550200F09AF83A
:104490004FF40077012C294604D05220FFF736FE56
:1044A00070B11AE05120FFF731FEE0B939463046CD
:1044B000FFF704FEB8B1FCF74BFB00F0C5F818E0BD
:1044C00039463046FFF7FAFD18B1641E06F500764E
:1044D000F6D100214C20FFF719FEFCF739FB00F064
:1044E000B3F824B905E0FCF733FB00F0ADF8012088
:1044F000C4E70020C2E700004C00002008B1012002
:1045000070470148007870474C0000202DE9F041C9
:104510001C4616460F4638B934B1294D2878C007D5
:1045200004D00320BDE8F0810420FBE72878400791
:1045300001D50220F6E7A878400700D4560200F023
:1045400041F8012C10D0A878800707D500217720EA
:10455000FFF7DCFD21465720FFF7D8FD31465920F3
:10456000FFF7D4FD78B11CE031465820FFF7CEFDAF
:10457000F0B9FE213846FFF701FEC8B1FCF7E8FAB2
:1045800000F062F819E0FC213846FFF7F7FD18B19A
:10459000641E07F50077F6D1FD210020FFF7EEFD40
:1045A00030B1FCF7D5FA00F04FF834B10120B9E78B
:1045B000FCF7CEFA00F048F8F8E70020B2E7000078
:1045C0004C000020002201210148FDF77CB80000CA
:1045D000000402400148FEF779B8000030010020D5
:1045E00010B5806B0021C187C186FEF76BF810BD46
:1045F00038B504461248134B0068B0FBF3F04FF493
:104600007A73584300906068B0F5827F0DD10B46F5
:10461000009200228021204600F040F870B1606DC9
:1046200040F020006065032038BD009830B1401E86
:10463000009020688068C0430006F6D5002038BD91
:104640005C00002000366E010EB5FF208DF80800DA
:1046500000208DF804000848FEF735F80128FAD14B
:104660004FF47A700090012301AA02A90248FEF7D4
:10467000F8F99DF804000EBD3001002001B5064890
:10468000FEF721F80128FAD14FF47A730122694626
:104690000148FEF733F908BD300100202DE9F84349
:1046A0001E46914688460446089DFDF711F8401BBA
:1046B000351AFDF70DF8074625480068C0F3CB30E2
:1046C000684338E0701C37D0FDF702F8C01BA842E1
:1046D00003D215B1009860B32CE02068416821F046
:1046E000E00141606068B0F5827F0BD1A068B0F551
:1046F000004F02D0B0F5806F04D12068016821F02E
:1047000040010160A06AB0F5005F09D1206801682E
:1047100021F4005101602068016841F400510160FA
:10472000012084F85100002084F850000320BDE8E7
:10473000F8830025401E00902068816838EA010057
:1047400004D000214945BDD10020F0E70121F9E75F
:104750005C000020704730B585B00C46054614213A
:104760006846FBF767FD0020CDE90040022003907A
:1047700069462846FCF7ACFE05B030BD30B585B0C3
:104780000C46054614216846FBF754FD0120CDE98F
:1047900000400220039069462846FCF799FE05B0C8
:1047A00030BD000010B5FDF753FC07480178491CE7
:1047B000017001780A2905D900210170BDE8104077
:1047C000FFF724BC10BD00004900002030B593B0B5
:1047D00030216846FBF72EFD14210CA8FBF72AFDBB
:1047E0001E480025016841F080510160006800F01A
:1047F000805011901A48016841F4804101600068BE
:10480000022400F4804011900120009000040190E7
:104810008001CDE90640082008904FF4A870CDE94A
:10482000090404200B906846FDF796FD08B172B6A6
:10483000FEE70CA90F2081E831004FF4A0500F9043
:104840004FF48050109005210CA8FDF79BFC002828
:1048500001D072B6FEE713B030BD00004038024010
:10486000007000400248016841F470010160704727
:1048700088ED00E0F0B50268254C264D264E274F06
:10488000274B4FF0804CA04209D0604507D0A8428A
:1048900005D0B04203D0B84201D0984204D122F0F2
:1048A000700E4A6842EA0E02A0421BD0604519D041
:1048B000A84217D0B04215D0B84213D0984211D0B8
:1048C000184DA8420ED0184DA8420BD0174DA84243
:1048D00008D0174DA84205D0164DA84202D0164D5B
:1048E000A84203D122F44075CA682A434D6922F0D8
:1048F00080022A4302608A68C2620A688262A04219
:1049000001D0984201D10969016301214161F0BDE3
:10491000000001400004004000080040000C00407E
:1049200000040140004001400044014000480140B3
:1049300000180040001C00400020004010B5806BB3
:104940000021C185C184FEF758FA10BD70B5846B93
:104950002068406994F83D10C0F3C010002521295B
:1049600004D118B1E584204600F067F8206840695A
:1049700094F83E10C0F38010222904D118B1E585C7
:10498000204600F042F8206C40F0100020642046E1
:10499000FEF733FA70BD10B50146806B09680968EF
:1049A000C9051BD40021C1850168CA6822F4807240
:1049B000CA6001684A6922F001024A6101684A69D5
:1049C00022F040024A61202180F83E10016B01294B
:1049D00004D10168CA6822F01002CA60016B012983
:1049E00002D0FEF7D0FB10BD818DFEF705FA10BD99
:1049F00010B5806B016B012902D0FEF7C5FB10BD1D
:104A0000818D4908FEF7F8F910BD0168CA6822F4E3
:104A10009072CA6001684A6922F001024A61016B22
:104A2000012904D10168CA6822F01002CA6020215D
:104A300080F83E100021016370470168CA6822F0C7
:104A4000C002CA60202180F83D10704710B50446AE
:104A500090F83E00222801D0022010BDA1684FF43A
:104A60008052914201D1206920B1A06A91421BD0AD
:104A700049B10AE02168A06A4968C1F308010180D0
:104A8000A06A801C08E0216971B12168496801F0C1
:104A90007F010170A06A401CA062E08D401E0004EE
:104AA000000CE08503D01CE021684968F1E720682C
:104AB000C16821F02001C1602068C16821F48071C3
:104AC000C1602068416921F001014161202084F822
:104AD0003E00206B012806D02046FEF754FB002044
:104AE0002063002010BD2068C16821F01001C16062
:104AF000A18D2046FEF780F9F1E7000070B504466D
:104B000000680169E26821F44051114301612169A3
:104B1000A068E26908436169114308432168CA68D3
:104B200049F20C639A430243CA6020684169A26952
:104B300021F440711143416131492068884202D01B
:104B40003049884202D1FDF7C7FB01E0FDF7B4FB15
:104B5000E2690023192164253226B2F5004F62680C
:104B600028D0A0FB0101930F9200FBF72BFB01461D
:104B7000B0FBF5F06FF01802504301EB800006EB3C
:104B80000010B0FBF5F000F0F002B1FBF5F002EB25
:104B90000012B1FBF5F06FF01803584301EB8000F1
:104BA00006EB0010B0FBF5F000F00F002168104498
:104BB000886070BDA0FB010192185B41FBF702FB0E
:104BC0000146B0FBF5F00201B1FBF5F06FF0180300
:104BD000584301EB800006EBC000B0FBF5F000F09D
:104BE000F80002EB4002B1FBF5F0584301EB800006
:104BF00006EBC000B0FBF5F000F00700D6E70000C0
:104C0000001001400014014038B581628285002502
:104C1000134604460564222084F83E00A26B134824
:104C2000D063A26B12481064A26B1248D064A06BD0
:104C30000A4605652168A06B091DFCF7FFFB20688B
:104C400001684168009184F83C50C16841F480716A
:104C5000C1602068416941F00101416120684169FA
:104C600041F040014161002038BD00009749000833
:104C7000F14900084D4900080148FEF7BFB800009F
:104C8000D0010020FFF7B0BAFFF74ABBFFF7EABB3D
:104C9000FFF734BCFFF73ABCFEE700000FB4084B47
:104CA00010B504A902AA039800F0EEF8044602A980
:104CB000002000F06CFC204610BC5DF814FB0000E6
:104CC0008F5500080907090E002804DB00F1E020D9
:104CD00080F80014704700F00F0000F1E02080F829
:104CE000141D704702E008C8121F08C1002AFAD13B
:104CF00070477047002001E001C1121F002AFBD15C
:104D0000704700002DE9FF5F82B00021DDE904302B
:104D1000020DDDF840B0034318D044F61050A2F263
:104D2000FF3242431514119801281FD0A5EB0B0048
:104D3000401C5FEA000A4FF000064E4FDFF8389142
:104D4000B046504615D5CAF1000413E0119801246D
:104D50004AA3012801D16FEA0B010298119AC0E918
:104D60000031C0E9024206B0BDE8F09FCBF100007F
:104D7000DFE704460021404A491842EB0450CDE9E0
:104D8000001012E0E00707D032463B464046494655
:104D9000FBF720FB8046894632463B4610461946C3
:104DA000FBF718FB06460F466410002CEAD1DDE93C
:104DB0000401DDE90023BAF1000F06DAFBF70AFB74
:104DC00042464B46FBF706FB05E0FBF775FB424608
:104DD0004B46FBF771FB04460E460022284BFBF7BF
:104DE00023FD03D84FF0FF30014607E00022254B9A
:104DF00020463146FBF747FAFBF7FDFC102409E09B
:104E0000002C0ADB0A220023FBF7DCF9039B30327B
:104E10001A55641E50EA0102F2D1641C039AC4F1CF
:104E200011031444119A012A03D0012208430DD121
:104E30000AE0084304D000204FF0110B119072E7F4
:104E4000A3EB0B056D1E0DE05B4504DD4FF000028A
:104E500005F1010504E003DA4FF00002A5F10105B8
:104E6000002AECD002981199C0E90231C0E900454E
:104E700079E70000000014400000F03F300000001F
:104E80000000F0430000E03F2DE9FF4F95B09A4647
:104E9000884606460025EEE1252877D100242746DE
:104EA000F94A0121039400E0044316F8013F203B36
:104EB00001FA03F01042F7D130782A2811D06FF0B0
:104EC0002F033078A0F13002092A16D8039A44F053
:104ED000020402EB820203EB42021044761C0390B0
:104EE000EFE758F8042B0392002A03DA504244F407
:104EF0000054039044F00204761C30782E2816D11A
:104F000016F8010F44F004042A280DD06FF02F0288
:104F10003078A0F13003092B09D807EB870302EBA7
:104F20004303C718761CF3E758F8047B761C3078E7
:104F30006C280FD006DC4C2817D068280DD06A28C2
:104F400014D104E0742810D07A280FD10DE044F475
:104F500000140AE044F4801401E044F44014727830
:104F6000824202D104F58014761C761C30786628C3
:104F70000BD013DC582877D009DC002875D04528E1
:104F8000F6D04628F4D047281AD193E118E06328D8
:104F900035D0642879D0652812D18BE1702873D080
:104FA00008DC6728F1D069286FD06E280DD06F28F3
:104FB00006D1ACE073282CD0752874D0782853D053
:104FC0005246179990476D1C54E1C4F302500228D1
:104FD00009D003280DD0D8F8001004280DD00D609A
:104FE00008F1040846E1D8F80010EA17C1E90052B8
:104FF000F6E7D8F800100D80F2E70D70F0E718F82A
:10500000041B8DF8001000208DF80100EB460120F4
:1050100003E058F804BB4FF0FF3061074FF0000188
:1050200002D40DE009F101018946B9420FDA814548
:10503000F8DB1BF809100029F4D108E009F101019F
:1050400089468142FADB1BF809100029F6D1039842
:105050005346A0EB090721463846179A00F080FA1C
:10506000284400EB090507E044E008E10DE01BF8E7
:10507000010B524617999047B9F10109F7D25346EF
:1050800021463846179AF2E039E00A21C4F3025269
:105090004FF0000B0091022A06D058F8040BC117FC
:1050A000032A09D00AE023E008F1070020F00702F4
:1050B000F2E80201904605E000B2C117042A01D1CE
:1050C00040B2C117002906DA0A460021404261EBCE
:1050D00002012D2202E0220504D52B228DF80420A6
:1050E000012203E0E20701D02022F7E7914657E0D2
:1050F0000A2100E010214FF0000B00910BE010217D
:105100004FF0000B44F004040827009103E008204E
:105110004FF0000B0090C4F30252022A05D058F859
:10512000040B0021032A08D008E008F1070020F052
:105130000702F2E80201904603E080B2042A00D19F
:10514000C0B24FF0000922072AD53278702A07D062
:10515000DDF800C08CF0100C5CEA0B0C05D00EE002
:1051600040228DF80420012208E050EA010306D015
:1051700030238DF804308DF8052002229146009BE3
:1051800083F0080353EA0B030AD150EA010201D16C
:10519000620705D530228DF804204FF001097F1EEB
:1051A0003278582A04D039A20C920CAA02920BE051
:1051B0003BA2F9E75B46009AFBF704F80C9B9B5C6B
:1051C000029A521E0292137050EA0102F2D1029822
:1051D00004A9081A00F1200B600702D524F48034DA
:1051E00000E001275F4502DDA7EB0B0000E0002097
:1051F00000EB0B01009003984944401A0390E00330
:1052000006D453462146179A039800F0A9F905449D
:10521000002706E001A85246C05D179990476D1C13
:105220007F1C4F45F6DBE0030CD553462146179A09
:10523000039800F095F9054404E030205246179990
:1052400090476D1C0099481E00900029F5DC08E08D
:105250000298029952460078491C0291179990478A
:105260006D1CBBF10001ABF1010BF1DC5BE100F067
:1052700065F90544761C307800287FF40DAE19B02E
:105280002846BDE8F08F0000092801003031323394
:105290003435363738396162636465660000000072
:1052A000303132333435363738394142434445465C
:1052B00000000000600700D4062708F1070020F076
:1052C0000700F0E80223804603F0004C5FEA0C0080
:1052D00001D097A009E0200501D596A005E0E007E0
:1052E00001D095A001E0AFF24C001390307823F08C
:1052F000004365280CD006DC452809D046281DD07F
:1053000047287FD13BE0662818D067287AD136E05D
:105310000021112F01DB112000E0781CCDE90001F4
:1053200004A90CA8FFF7EEFCDDE90D010C9A4FF083
:10533000000B07F10109109200914EE04FF0004080
:105340000097CDE9011004A90CA8FFF7DBFCDDE90B
:105350000D020C9B0F994FF0000B91461093009299
:1053600011B9791C00EB0109B7EB090003D4C0F1B6
:10537000FF3B07F10109A9EB0700019042E0012F73
:1053800000DA01270021112F01DD112000E038464D
:10539000CDE9000104A90CA8FFF7B4FCDDE90D017B
:1053A0000C9A00914FF0000BB946109221070FD4D0
:1053B000009A4A4503DA914601E0A9F10109B9F1E1
:1053C000010F05DD109AA9F10101515C3029F4D0DB
:1053D000B84202DA10F1040F03DA0121CDE901101D
:1053E00010E0002803DC8344A9EB000102E0411C2B
:1053F000494500DD8946A0EB0B00401C01904FF0B1
:1054000000400290200705D40198484502DB4FF088
:10541000FF30019000208DF84B0002980DF14B07F2
:10542000B0F1004F25D002200C902B200D90029857
:1054300000280CDA404202902D200D9007E00A214E
:105440000298FBF7FDF83031029007F8011D0C9926
:10545000481E0C900029F2DC02980028EFD1791E3A
:105460000D980870307800F0200040F0450007F8F3
:10547000020D11A8C01BC01D02901398007800B146
:10548000012000EB0901019801EBE0710298014451
:105490000398401A401E0390E00306D45346214669
:1054A000179A039800F05CF805441398007818B137
:1054B0005246179990476D1CE00323D55346214669
:1054C000179A039800F04CF805441BE0BBF1000F5D
:1054D00007DB0098584504DD1098179910F80B0069
:1054E00001E0179930205246904701980BF1010BCB
:1054F000401E05F10105019004D12E205246179956
:1055000090476D1CB9F10001A9F10109DEDC05E04D
:1055100017F8010B5246179990476D1C0299481EC7
:1055200002900029F4DC53462146179A03989EE620
:105530002D0000002B000000200000002DE9F041AC
:10554000044600251E461746880404D405E0394663
:105550002020B0476D1C641EF9D52846BDE8F081B7
:105560002DE9F041044600251E469046C80301D5AA
:10557000302700E02027880404D505E0414638465E
:10558000B0476D1C641EF9D52846BDE8F0810A6855
:10559000531C0B601070704710B50088FAF7FBFFC2
:1055A0009FED0A1B53EC112BFAF711FF9FED091B1E
:1055B00053EC112BFAF70EFF9FED081B53EC112B48
:1055C000FAF708FFFAF7F4FFC0B210BD00000000C0
:1055D0000000B040000000000000303F000000006C
:1055E0000000594010B504460020E070401E606382
:1055F000204601F0BCFD08B1042010BD04F23620A5
:1056000001F02AFCA0F52A41553901D0032010BD34
:1056100094F83800E92805D0EB2814D194F83A0022
:10562000902810D104F16E0001F00BFC0749B1EB9A
:10563000002F06D004F18A0001F003FC04498842DF
:1056400001D1002010BD022010BD000000464154D1
:105650004641543300E0401C02780AB18A42FAD134
:10566000D0B27047F0B50022144D134605EB02147A
:1056700026685EB10768BE4209D166688768BE4287
:1056800005D1A4684669B44204D000E00123521C4D
:10569000022AEBD3022A01D069B904E04BB90229EE
:1056A00007D01220F0BD05EB02108089B0F5807F95
:1056B00001D00020F0BD1020F0BD00000C2800201B
:1056C00030B50021054B0C4603EB011215688542ED
:1056D00000D11460491C0229F6D330BD0C280020EB
:1056E0000268C06A938952895343B1FBF3F1001DEC
:1056F00004C81AB1914203D3891AF8E70020704711
:10570000006808447047C269891E921E8A4201D807
:1057100000207047026B408901FB002070470000A9
:105720002DE9F05F82460C4601F11A0001F094FB6E
:1057300078BB2078012700F03F00401E00EB80017D
:10574000DFF8589001EBC00500264FF6FF7B00BF45
:1057500019F80600204401F07FFB80466FB1FF2D51
:1057600017D200F0CDFE07463AF815006D1C00F088
:10577000C7FE87420DD1474601E0D84509D1761CC6
:105780000D2EE5D32078400606D52FB13AF8150046
:1057900010B10020BDE8F09F0120FBE7687B000806
:1057A0002DE9F04105680F00804606D001F0AEF803
:1057B000022809D20120BDE8F0816E6916B1E869BE
:1057C000B04207D8012605E0411CF4D0E9698142C6
:1057D000F1D83E463446E869641CA04202D802244F
:1057E000022E0AD32146404601F090F838B1012834
:1057F000E1D0411CDFD0B442EDD10020DBE74FF017
:10580000FF3632462146284601F0CAFC30B957B16E
:1058100022463946284601F0C3FC20B101280FD0AA
:1058200001242046C7E76C61D5E90601891E88423C
:1058300001D8401EA861287940F001002871F0E7E6
:105840003446EEE72DE9F84F824600680E680024E2
:10585000076988462546705D6D1C20281AD32F28BD
:1058600013D05C2811D0FF2C39D2012100F02CFE7E
:105870005FEA000933D0B9F1800F12D201466DA062
:10588000FFF7E8FE58BB0CE06D1C715D2F29FBD0C3
:105890005C29F9D07219C8F80020202805D2042507
:1058A0000FE027F81490641CD5E7002509E000BF3D
:1058B00007EB440030F8020C202801D02E2802D13A
:1058C000641E002CF4D1002027F814003CB10B22F8
:1058D00020210AF1240001F043FC002603E0062009
:1058E000BDE8F88F761C37F816002028FAD02E284D
:1058F000F8D01EB145F0030500E0641E2CB107EBA3
:10590000440030F8020C2E28F7D14FF000094FF078
:10591000080BCDF8009000BF37F8160006F101061D
:105920005FEA000824D0B8F1200F04D0B8F12E0FA0
:1059300004D1A64202D045F00305EDE70098584592
:1059400001D2A64219D1BBF10B0F0FD0A64201D054
:1059500045F003050CD84FF0080000904FEA89602D
:1059600026464FF00B0B4FEA1069D5E745F00305CB
:105970009AF82400E52838D03AE04046B8F1800F84
:1059800010D3002100F0A0FD5FEA000805D02C49EB
:1059900001EB080010F8800C804645F00205B8F1D4
:1059A000000F04D0014627A0FFF754FE20B14FF0AE
:1059B0005F0845F003050FE0A8F14100192802D85F
:1059C00049F0020908E0A8F16100192804D8413023
:1059D00049F001091FFA80F8009A0AEB020181F8E8
:1059E00024800098401C009096E705218AF8241036
:1059F000BBF1080F03D14FEA89604FEA1069C9F380
:105A00008100032803D06FEA0901890701D145F01D
:105A10000205A90709D409F00301012901D145F0C4
:105A20001005012801D145F008058AF82F50002003
:105A300056E70000222A3A3C3E3F7C7F00000000EF
:105A4000E87A00082B2C3B3D5B5D0000401E0228DD
:105A500012D20A4901EB00118889B0F5807F05D088
:105A600008B1401E80B2888110B103E00020FAE73F
:105A70000020086000207047022070470C2800209A
:105A8000044900220B685A6209684A6A8242FCD3C0
:105A900070470000880100202DE9F04704460021EE
:105AA000D0F8009000F0D4F900285BD1FF25471E04
:105AB000A84627634846E16901F059FB060050D12A
:105AC000216A087850B1CA7AE52802F03F02A27133
:105AD0003FD0130704D50F2A3BD105E0042640E050
