:020000040800F2
:1000000060040020A1010008EF0D0008390D000870
:10001000ED0D0008D9020008BD0F00080000000027
:10002000000000000000000000000000F30D0008C8
:10003000F503000800000000F10D0008410E000863
:10004000BB010008BB010008BB010008BB010008A0
:10005000BB010008BB010008BB010008BB01000890
:10006000BB010008BB010008BB010008BB01000880
:10007000BB010008BB010008BB010008BB01000870
:10008000BB010008BB010008BB010008BB01000860
:10009000BB010008BB010008BB010008BB01000850
:1000A000BB010008BB010008BB010008BB01000840
:1000B000BB010008BB010008BB010008BB01000830
:1000C000BB010008BB010008BB010008BB01000820
:1000D000BB010008BB010008BB010008BB01000810
:1000E000BB010008BB010008BB010008BB01000800
:1000F000BB010008BB010008BB010008BB010008F0
:10010000BB010008BB010008BB010008BB010008DF
:10011000BB010008BB010008BB010008BB010008CF
:10012000BB010008BB010008BB010008BB010008BF
:10013000BB010008BB010008BB010008BB010008AF
:10014000BB010008BB010008BB010008BB0100089F
:10015000BB010008BB010008BB010008BB0100088F
:10016000BB010008BB010008BB010008BB0100087F
:10017000BB010008BB010008BB0100080000000033
:10018000BB010008BB010008DFF810D000F092F8B6
:100190000048004719120008AFF3008060040020F7
:1001A0000648804706480047FEE7FEE7FEE7FEE711
:1001B000FEE7FEE7FEE7FEE7FEE7FEE7D90E0008F2
:1001C000890100082DE9F05F0546002092469B4614
:1001D00088460646814640241BE02846414647465D
:1001E000224600F057F853465A46C01A914110D3A0
:1001F00011461846224600F03EF82D1A67EB01081A
:100200004F4622460120002100F035F817EB000987
:100210004E41201EA4F10104DFDC484631462A4647
:100220004346BDE8F09FD2B201E000F8012B491E21
:10023000FBD270470022F6E710B513460A46044683
:100240001946FFF7F0FF204610BD30B50B460146BA
:1002500000202022012409E021FA02F59D4205D365
:1002600003FA02F5491B04FA02F52844151EA2F10F
:100270000102F1DC30BD202A04DB203A00FA02F151
:10028000002070479140C2F1200320FA03F3194384
:1002900090407047202A04DB203A21FA02F0002126
:1002A000704721FA02F3D040C2F120029140084386
:1002B00019467047064C074D06E0E06840F0010320
:1002C00094E8070098471034AC42F6D3FFF760FF7C
:1002D00098120008B8120008FEE7000070B52C4C18
:1002E00000220221204600F07AF9142000F084F860
:1002F00001220221204600F072F90221204600F07E
:1003000079FD282000F036FF0221204600F062F936
:1003100048B10221204600F080FD01220221204642
:1003200000F05DF931E00221204600F053F9002889
:10033000F9D025460221284600F04CF90028F9D1D1
:1003400000F02AF8134C207000F026F8607000F0DE
:1003500023F8A07000F020F8E07000F01DF8A080F5
:100360000221284600F059FD01220221284600F012
:1003700036F9207861780844A1780844E178084487
:10038000A188884201D1012070BD002070BD00000D
:1003900000000240000000202DE9F0410024144F2D
:1003A00001260221384600F015F90028F9D01E2058
:1003B00000F0E0FE0221384600F00CF960B10221A5
:1003C000384600F007F90028F9D1C4F1070106FA10
:1003D00001F02843C5B204E0C4F1070006FA00F0BA
:1003E0008543641CE4B2082CDBD32846BDE8F081C9
:1003F000000002407047FEE770B5044600F0F4F8D4
:100400000546601C02D004480078044400F0ECF873
:10041000401BA042FAD370BD0C0000202DE9F84F1C
:1004200000224FF0010803254FF00F0E0B6808FA69
:1004300002F42340A3426ED14E68012E05D0022E55
:1004400003D0112E01D0122E12D186684FEA420C31
:1004500005FA0CF7BE43CF6807FA0CF737438760FD
:100460004668A6430C79C4F30014944034434460B6
:10047000C668570005FA07FC8C6826EA0C06BC40E3
:100480003443C4604C68022C01D0122C13D1D40820
:1004900000EB8404A346D4F8209054074FEAD46AB2
:1004A0000EFA0AF629EA06090E6906FA0AF646EA7B
:1004B0000906CBF8206006680C7926EA0C0604F0E1
:1004C0000304BC40344304604C68E40065D5364CFA
:1004D000266846F480462660246822F0030604F469
:1004E00080440094314C3444A446D4F8084896071C
:1004F000370F0EFA07F6B4432D4EB04201D1002655
:1005000024E02C4EB04201D101261FE02A4EB04219
:1005100002D102261AE040E0284EB04201D1032663
:1005200014E0274EB04201D104260FE0254EB04220
:1005300001D105260AE0244EB04201D1062605E08D
:10054000224EB04201D1072600E00826BE402643D5
:10055000CCF808681E4E34684F689C43FF0300D5F2
:100560001C4334601A4C241D26684F689E43BF0309
:1005700000D51E432660164E083634684F689C43EB
:10058000FF0200D51C433460114E0C3634684F68AE
:100590009C43BF0200D51C433460521C102AFFF458
:1005A00045AFBDE8F88F00004438024000300140FC
:1005B000000002400004024000080240000C02401B
:1005C000001002400014024000180240001C0240CB
:1005D000003C01400069084000D0012070470AB18A
:1005E000816170470904FBE701488068704700009B
:1005F0000C00002002488168027811448160704735
:100600000C0000200B4810B5016841F40071016036
:10061000016841F480610160016841F4807101600A
:10062000032000F061F8002000F006F800F024F844
:10063000002010BD003C024070B50D4D04464FF443
:100640007A712878B1FBF0F00A490968B1FBF0F043
:1006500000F0D4FA48B9102C07D200222146501ECF
:1006600000F022F800206C6070BD012070BD000019
:100670000C000020180000200A4808B5016841F469
:1006800080410160006800F4804000900548001F30
:10069000016841F080510160006800F080500090D6
:1006A00008BD000044380240F0B40E4B1B680C46F5
:1006B000C3F30223C3F10705042D00D90425191D36
:1006C000072901D2002300E0DB1E012606FA05F10E
:1006D000491E214099409E40761E16403143F0BC91
:1006E00000F07EBC0CED00E0064900F0070208684F
:1006F0004FF6FF03184040EA0220034A1043086007
:10070000704700000CED00E00000FA052DE9F0470D
:100710000E46050065D0DFF81481D8F80000F7B266
:1007200000F00F00B04207D288F80070D8F800003F
:1007300000F00F00B04254D128683D4C810712D51B
:10074000400703D5206840F4E05020602878000777
:1007500003D5206840F4604020602068A96820F03C
:10076000F000084320602878C0072DD03049686821
:100770000839012812D0022813D0032811D00968A3
:10078000890700292DDA216821F003010143216046
:10079000FFF72AFF814641F2883A0EE00968890393
:1007A000EFE709688901ECE7FFF71EFFA0EB0901FD
:1007B000514502D90320BDE8F0872068696800F040
:1007C0000C00B0EB810FEFD1D8F80010404601F0DB
:1007D0000F01B14207D90770006800F00F00B04266
:1007E00001D00120E7E72878400705D52068E968AF
:1007F00020F4E050084320602878000706D52068E0
:10080000296920F4604040EAC100206000F018F837
:100810002168084AC1F30311515CC84006490860C9
:1008200006480068FFF708FF0020C4E7003C0240CC
:10083000083802408812000818000020100000202C
:10084000154810B5006810F00C02144813D0411080
:10085000042A0FD0082A0ED10F4C241F22682368C7
:1008600002F03F025B0207D52068C0F38810A0FBAE
:10087000010106E0084610BD2168C1F38811A1FB03
:1008800000010023FFF79EFC2168C1F30141491CD0
:100890004900B0FBF1F010BD083802400024F4001C
:1008A0002DE9F84F04006ED02078DFF83C93C007A4
:1008B000A9F104054AD009F104000168C1F38101DE
:1008C000012908D00068C0F3810002280AD1D9F8B4
:1008D0000000400206D52868800337D560680028EC
:1008E000E1D033E06068B0F5803F10D0B0F5A02FC4
:1008F000286810D020F480302860286820F48020F8
:1009000028606068A8B1FFF76FFE06460DE0286812
:1009100040F48030F4E740F480202860F7E700BF1F
:10092000FFF762FE801B642873D828688003F7D520
:100930000CE0FFF759FE064605E000BFFFF754FE46
:10094000801B6428F0D828688003F7D42078DFF86B
:100950009C8280074FF0000A3ED5A348001D016825
:1009600011F00C0F08D00068C0F3810002280BD1F1
:10097000D9F80000400207D42868800716D5E0683F
:10098000012800D112E02BE1E068B8B10120C8F8DD
:100990000000FFF729FE064605E000BFFFF724FE32
:1009A000801B0228C0D828688007F7D528682169ED
:1009B00020F0F80040EAC10028600DE0C8F800A06F
:1009C000FFF712FE064604E0FFF70EFE801B02282A
:1009D0001FD828688007F7D42078000722D5824ED8
:1009E00083486169703671B101210160FFF7FCFD38
:1009F000074604E0FFF7F8FDC01B022809D830685D
:100A00008007F7D50EE0C0F800A0FFF7EDFD074620
:100A100005E082E0FFF7E8FDC01B02287DD83068C2
:100A20008007F7D42078400768D5DFF8BCB10027ED
:100A30000BF13C0BDBF80000C0000BD4DBF800101E
:100A400041F08051CBF80010DBF80000012700F0E6
:100A500080500090674E3068C00510D4306840F474
:100A600080703060FFF7C0FD009005E0FFF7BCFD2F
:100A70000099401A022850D83068C005F6D55A4E61
:100A8000A0686C3601280FD00528306810D020F0FF
:100A900001003060306820F004003060A068B8B118
:100AA000FFF7A2FD00900FE0306840F00100F4E78E
:100AB00040F004003060F7E7FFF796FD0099411A17
:100AC00041F28830814266D830688007F4D50EE064
:100AD000FFF78AFD009007E0FFF786FD0099411AB5
:100AE00041F28830814256D830688007F4D42FB163
:100AF000DBF8001021F08051CBF80010A069C8B3DA
:100B00003949091D0968C1F3810102294AD0022827
:100B1000504607D0C8F8600000E03CE0FFF764FDF5
:100B200004463BE04746C8F86000FFF75DFD064617
:100B300005E000BFFFF758FD801B02282BD828686E
:100B40008001F7D4D4E907010843A16A2A4A490879
:100B500002EB0141626A41EA8211084394F82C10C9
:100B600040EA0161C9F8001001203866FFF73CFD3A
:100B7000044606E036E000BFFFF736FD001B022802
:100B800009D828688001F7D52CE000BFFFF72CFDBD
:100B9000001B022802D90320BDE8F88F28688001D5
:100BA000F4D41FE00128F7D0D9F80000E26900F47E
:100BB0008001914214D1226A00F03F0191420FD18D
:100BC00047F6C071626A0140914209D1A26A00F4FD
:100BD0004031914204D1E16A00F07060884201D056
:100BE0000120D9E70020D7E704380240000047423F
:100BF000800E4742007000400000FFFF10B5401E0D
:100C0000B0F1807F01D3012010BD4FF0E02460617E
:100C10000F21601700F0E4F90020A0610720206197
:100C2000002010BD70B590F83C20012A32D001247C
:100C300080F83C40022280F83D2003685A689D6895
:100C400022F070060A6832435A60134B02689A42D7
:100C500014D0B2F1804F11D0104B9A420ED0104BED
:100C60009A420BD00F4B9A4208D00F4B9A4205D0B4
:100C70000E4B9A4202D00E4B9A4204D1496825F09D
:100C800080031943916080F83D40002180F83C10BA
:100C9000084670BD022070BD000001400004004005
:100CA00000080040000C00400004014000400140EA
:100CB0000018004010B5040003D094F83D0010B1B6
:100CC00007E0012010BD002084F83C00204600F021
:100CD0000DF8022084F83D00211D206800F00AF97B
:100CE000012084F83D00002010BD000008B5006818
:100CF0000649884208D10648016841F010010160A8
:100D0000006800F01000009008BD000000100040D6
:100D100040380240022180F83D1001688A6802F0E4
:100D20000702062A03D00A6842F001020A60012184
:100D300080F83D1000207047FEE7000030B587B016
:100D400014216846FFF776FA15480024016841F03F
:100D500080010160016801F080010591016841F0A6
:100D600001010160016801F001010591016841F094
:100D70000201016000680B4D00F0020005900122A5
:100D800002212846FFF72BFC02210120CDE90010AB
:100D9000CDE9024169462846FFF740FB07B030BD68
:100DA00030380240000002401CB500240E48009478
:100DB0000C4901940160A721C0E901144FF6FF71AD
:100DC0008461C160FFF776FF08B1FFF714FB009460
:100DD000694605480194FFF725FF002801D0FFF779
:100DE0000AFB1CBD0010004020000020FEE77047F9
:100DF0007047704730B585B00C46054614216846EB
:100E0000FFF718FA0020CDE900400320039069465F
:100E10002846FFF703FB05B030BD30B585B00C4662
:100E2000054614216846FFF705FA0120CDE9004088
:100E30000320039069462846FFF7F0FA05B030BD5D
:100E4000FFF7D8BB30B593B030216846FFF7F2F911
:100E500014210CA8FFF7EEF91D480025016841F0A8
:100E600080510160006800F08050119019480168BD
:100E700041F4804101600068022400F48040119038
:100E800001200090000401908001CDE90640082077
:100E900008904FF4A870CDE9090404200B9068462F
:100EA000FFF7FEFC00B1FEE70CA90F2081E831003E
:100EB0004FF4A0500F904FF48050109005210CA8D3
:100EC000FFF724FC002800D0FEE713B030BD00007F
:100ED00040380240007000400548016841F470014C
:100EE000016003494FF000608039086070470000DE
:100EF00088ED00E0F0B50268254C264D264E274FC0
:100F0000274B4FF0804CA04209D0604507D0A84243
:100F100005D0B04203D0B84201D0984204D122F0AB
:100F2000700E4A6842EA0E02A0421BD0604519D0FA
:100F3000A84217D0B04215D0B84213D0984211D071
:100F4000184DA8420ED0184DA8420BD0174DA842FC
:100F500008D0174DA84205D0164DA84202D0164D14
:100F6000A84203D122F44075CA682A434D6922F091
:100F700080022A4302608A68C2620A688262A042D2
:100F800001D0984201D10969016301214161F0BD9D
:100F9000000001400004004000080040000C004038
:100FA000000401400040014000440140004801406D
:100FB00000180040001C004000200040FEE7000038
:100FC0000FB4054B10B503A9044A029800F028F8A5
:100FD00010BC5DF814FB00008D1100081C000020FF
:100FE0000907090E002804DB00F1E02080F8001456
:100FF000704700F00F0000F1E02080F8141D7047EA
:1010000002E008C8121F08C1002AFAD170477047D1
:10101000002001E001C1121F002AFBD1704700002F
:101020002DE9FF4F89B09B460446002506E02528A0
:101030000BD05A460B999047641C6D1C20780028F1
:10104000F5D10DB02846BDE8F08F0027B846012243
:10105000474900E0074314F8013F203B02FA03F040
:101060000842F7D120782E2819D114F8010F47F043
:1010700004072A280ED06FF02F022078A0F130014B
:1010800009290CD808EB880102EB410100EB0108AB
:10109000641CF2E70A98641C50F8048B0A902078CC
:1010A0000028CED0642808D0692806D075281ED024
:1010B0005A460B9990476D1C58E00A994FF00A095F
:1010C00001C90A91002802DA40422D2102E03905C7
:1010D00004D52B218DF82010012103E0F90704D05D
:1010E0002021F7E78A4608AE0DE00021FAE70A99C9
:1010F0004FF00A0901C90A91F7E74946FFF7A5F839
:10110000303106F8011D0028F7D1ADEB060000F1E3
:101110002009780701D44FF00108C84502DDA8EB8B
:10112000090000E000208046002706E008A85A4693
:10113000C05D0B9990476D1C7F1C5745F6DB04E0A2
:1011400030205A460B9990476D1CB8F10001A8F168
:101150000108F5DC05E016F8010B5A460B9990479B
:101160006D1CB9F10001A9F10109F4DC641C65E70B
:1011700009280100044900220B685A6209684A6A7A
:101180008242FCD370470000200000200849096813
:10119000C90706D0064980390968CA074FF060417F
:1011A00001D1704700BF0A68002AFBD00870704761
:1011B000800E00E010B5FFF7F7FD0F48FFF7AAFD1E
:1011C0000E484FF47A710068B0FBF1F0401EB0F1A8
:1011D000807F0FD24FF0E0214861094AF02082F869
:1011E000140D0020886107200861BDE8104005A0AB
:1011F000FFF7E6BEFEE700002000002018000020F8
:101200000FE000E02E2E2E496E697469616C697AD8
:10121000696E672E2E2E0A00FFF7F4F9FFF712FE13
:10122000FFF78CFDFFF7C6FF00F002F8FCE70000B7
:1012300010B5FFF7D9F90B4CA168401AB0F57A7FC9
:101240000ED9FFF74BF828B12278A17806A0FFF756
:10125000B7FE02E00AA0FFF7B3FEFFF7C5F9A060F2
:1012600010BD00000000002054656D70203D202559
:10127000642C2068756D6964203D2025640A000097
:101280004552524F520A00000000000000000000CA
:101290000102030406070809B81200080000002034
:1012A0002000000000100008D812000820000020D4
:1012B00040040000101000080000000000000000C2
:1012C000000000000100000010000000000000000D
:0812D0000024F40000000000FE
:040000050800018965
:00000001FF
