:020000040800F2
:1000000068040020A1010008B10E0008450E000898
:10001000AF0E0008AD020008610F000800000000EC
:10002000000000000000000000000000B50E000805
:10003000AF02000800000000B30E0008B70E000871
:10004000BB010008BB010008BB010008BB010008A0
:10005000BB010008BB010008BB010008BB01000890
:10006000BB010008BB010008BB010008BB01000880
:10007000BB010008BB010008BB010008BB01000870
:10008000BB010008BB010008BB010008BB01000860
:10009000BB010008BB010008BB010008BB01000850
:1000A000BB010008BB010008BB010008BB01000840
:1000B000BB010008BB010008BB010008BB01000830
:1000C000BB010008BB010008BB010008BB01000820
:1000D000BB010008BB010008BB010008BB01000810
:1000E000BB010008BB010008BB010008BB01000800
:1000F000BB010008BB010008BB010008BB010008F0
:10010000BB010008BB010008BB010008BB010008DF
:10011000BB010008BB010008BB010008BB010008CF
:10012000BB010008BB010008BB010008BB010008BF
:10013000BB010008BB010008BB010008BB010008AF
:10014000BB010008BB010008BB010008BB0100089F
:10015000BB010008BB010008BB010008BB0100088F
:10016000BB010008BB010008BB010008BB0100087F
:10017000BB010008BB010008BB0100080000000033
:10018000BB010008BB010008DFF810D000F07CF8CC
:1001900000480047AD120008AFF30080680400205B
:1001A0000648804706480047FEE7FEE7FEE7FEE711
:1001B000FEE7FEE7FEE7FEE7FEE7FEE7450F000885
:1001C000890100082DE9F05F0546002092469B4614
:1001D00088460646814640241BE02846414647465D
:1001E000224600F041F853465A46C01A914110D3B6
:1001F00011461846224600F028F82D1A67EB010830
:100200004F4622460120002100F01FF817EB00099D
:100210004E41201EA4F10104DFDC484631462A4647
:100220004346BDE8F09FD2B201E000F8012B491E21
:10023000FBD270470022F6E710B513460A46044683
:100240001946FFF7F0FF204610BD202A04DB203AB4
:1002500000FA02F1002070479140C2F1200320FA19
:1002600003F3194390407047202A04DB203A21FA17
:1002700002F00021704721FA02F3D040C2F12002BF
:100280009140084319467047064C074D06E0E06868
:1002900040F0010394E8070098471034AC42F6D3CD
:1002A000FFF776FF80130008A0130008FEE77047F1
:1002B00070B5044600F0EAF80546601C02D0044818
:1002C0000078044400F0E2F8401BA042FAD370BD6D
:1002D000000000202DE9F84F00224FF0010803250F
:1002E0004FF00F0E0B6808FA02F42340A3426ED1C0
:1002F0004E68012E05D0022E03D0112E01D0122EF1
:1003000012D186684FEA420C05FA0CF7BE43CF685B
:1003100007FA0CF7374387604668A6430C79C4F3A5
:100320000014944034434460C668570005FA07FC43
:100330008C6826EA0C06BC403443C4604C68022C2E
:1003400001D0122C13D1D40800EB8404A346D4F8B6
:10035000209054074FEAD46A0EFA0AF629EA0609F1
:100360000E6906FA0AF646EA0906CBF82060066826
:100370000C7926EA0C0604F00304BC403443046004
:100380004C68E40065D5364C266846F48046266005
:10039000246822F0030604F480440094314C344471
:1003A000A446D4F808489607370F0EFA07F6B44368
:1003B0002D4EB04201D1002624E02C4EB04201D196
:1003C00001261FE02A4EB04202D102261AE040E088
:1003D000284EB04201D1032614E0274EB04201D18D
:1003E00004260FE0254EB04201D105260AE0244E36
:1003F000B04201D1062605E0224EB04201D10726C7
:1004000000E00826BE402643CCF808681E4E34683B
:100410004F689C43FF0300D51C4334601A4C241DD5
:1004200026684F689E43BF0300D51E432660164EC4
:10043000083634684F689C43FF0200D51C43346083
:10044000114E0C3634684F689C43BF0200D51C43E4
:100450003460521C102AFFF445AFBDE8F88F00004D
:1004600044380240003001400000024000040240D5
:1004700000080240000C024000100240001402403C
:1004800000180240001C0240003C01400148806806
:10049000704700000000002070B5040025D094F8DB
:1004A0003D00002520B984F83C50204600F06EF94C
:1004B000242084F83D002068016821F001010160DA
:1004C0002068016841F4004101602068016821F45E
:1004D0000041016000F0B4FA4D4A6168914201D8D0
:1004E0004C4900E04C49884201D2012070BD4B4983
:1004F0002368B0FBF1F15E6826F03F060E435E60B4
:100500006368934206D94FF4967359434FF47A7354
:10051000B1FBF3F12368491C1E6A26F03F06314304
:1005200019626168914210D84900401EB0FBF1F297
:10053000521CC2F30B02042A01D2042022E0B0FBB9
:10054000F1F0401CC0F30B001CE0A268F2B301EB19
:10055000C10303EB0116431EB3FBF6F35B1C43F42C
:1005600080431B0549D092B301EBC10202EB01119C
:10057000401EB0FBF1F0401CC0F30B0040F4804083
:1005800040F400402168CA694CF6FF739A43104357
:10059000C861D4E9071001432068026822F0C00254
:1005A00011430160D4E9030101432068826848F2E5
:1005B000FF339A4311438160D4E905010843216860
:1005C000CA6822F0FF021043C86001E00EE016E0A6
:1005D0002068016841F0010101602564202084F851
:1005E0003D00256384F83E50002070BD01EB4106BC
:1005F000431EB3FBF6F35B1CB3E70120C2E701EB3C
:100600004101401EB0FBF1F0401CC0F30B00B7E706
:10061000A086010080841E0000093D0040420F00BA
:100620002DE9FF4F81B089460446FFF72FFF0546AD
:1006300094F83D004FF0010820287DD119230122B4
:1006400050492046009500F0FEFB002874D194F834
:100650003C00012870D0012084F83C00206801682B
:10066000C90703D1016841F00101016020680168F8
:1006700021F400610160242084F83D0000262664F6
:100680004148E0624FF0011B20272068016841F4D7
:10069000807101600095002259462046049B00F0BD
:1006A000D2FB50B120680068C00502D54FF400703D
:1006B0002064032005B0BDE8F08F216809F0FE003A
:1006C0000861FFF7E3FE2168054648694969C0F300
:1006D0004000C1F380214FF0A00A0FE0FFF7D6FEE3
:1006E000411B0498814200D808B984F83DA02168D4
:1006F00048694969C0F34000C1F3802194F83D2066
:10070000A02A02D008B90029E8D084F83D702068FA
:100710004169C943890716D4016841F40071016039
:1007200020684169806919230122164920460095F5
:1007300000F089FBB8B900E021E084F83D7084F84E
:100740003C600020B6E7016841F400710160216857
:100750006FF480604861192301220A492046009500
:1007600000F071FB08B10120A4E7039808F101082B
:1007700080458AD384F83D7084F83C60F3E702201A
:1007800098E70000020010000000FFFF10B586B0DF
:10079000044614216846FFF74DFD1349206888423E
:1007A00020D11248016841F00201016000686946E9
:1007B00000F002000590C02000901220019001205E
:1007C000029003200390042004900948FFF782FD63
:1007D00006481030016841F400110160006800F41F
:1007E0000010059006B010BD0054004030380240A3
:1007F0000004024002488168027811448160704719
:10080000000000200B4810B5016841F40071016040
:10081000016841F480610160016841F48071016008
:10082000032000F061F8002000F006F800F024F842
:10083000002010BD003C024070B50D4D04464FF441
:100840007A712878B1FBF0F00A490968B1FBF0F041
:1008500000F0E4FA48B9102C07D200222146501EBD
:1008600000F022F800206C6070BD012070BD000017
:10087000000000200C0000200A4808B5016841F47F
:1008800080410160006800F4804000900548001F2E
:10089000016841F080510160006800F080500090D4
:1008A00008BD000044380240F0B40E4B1B680C46F3
:1008B000C3F30223C3F10705042D00D90425191D34
:1008C000072901D2002300E0DB1E012606FA05F10C
:1008D000491E214099409E40761E16403143F0BC8F
:1008E00000F050BB0CED00E0064900F0070208687C
:1008F0004FF6FF03184040EA0220034A1043086005
:10090000704700000CED00E00000FA052DE9F0470B
:100910000E46050065D0DFF81481D8F80000F7B264
:1009200000F00F00B04207D288F80070D8F800003D
:1009300000F00F00B04254D128683D4C810712D519
:10094000400703D5206840F4E05020602878000775
:1009500003D5206840F4604020602068A96820F03A
:10096000F000084320602878C0072DD0304968681F
:100970000839012812D0022813D0032811D00968A1
:10098000890700292DDA216821F003010143216044
:10099000FFF77CFD814641F2883A0EE00968890341
:1009A000EFE709688901ECE7FFF770FDA0EB0901AB
:1009B000514502D90320BDE8F0872068696800F03E
:1009C0000C00B0EB810FEFD1D8F80010404601F0D9
:1009D0000F01B14207D90770006800F00F00B04264
:1009E00001D00120E7E72878400705D52068E968AD
:1009F00020F4E050084320602878000706D52068DE
:100A0000296920F4604040EAC100206000F028F825
:100A10002168084AC1F30311515CC84006490860C7
:100A200006480068FFF708FF0020C4E7003C0240CA
:100A300008380240681300080C0000200400002061
:100A40000448054900680968044AC1F38221515CE1
:100A5000C84070470C000020083802407813000896
:100A6000154810B5006810F00C02144813D041105E
:100A7000042A0FD0082A0ED10F4C241F22682368A5
:100A800002F03F025B0207D52068C0F38810A0FB8C
:100A9000010106E0084610BD2168C1F38811A1FBE1
:100AA00000010023FFF78EFB2168C1F30141491CBF
:100AB0004900B0FBF1F010BD083802400024F400FA
:100AC0002DE9F84F04006ED02078DFF83C93C00782
:100AD000A9F104054AD009F104000168C1F38101BC
:100AE000012908D00068C0F3810002280AD1D9F892
:100AF0000000400206D52868800337D560680028CA
:100B0000E1D033E06068B0F5803F10D0B0F5A02FA1
:100B1000286810D020F480302860286820F48020D5
:100B200028606068A8B1FFF7B1FC06460DE02868B0
:100B300040F48030F4E740F480202860F7E700BFFD
:100B4000FFF7A4FC801B642873D828688003F7D5BE
:100B50000CE0FFF79BFC064605E000BFFFF796FCA4
:100B6000801B6428F0D828688003F7D42078DFF849
:100B70009C8280074FF0000A3ED5A348001D016803
:100B800011F00C0F08D00068C0F3810002280BD1CF
:100B9000D9F80000400207D42868800716D5E0681D
:100BA000012800D112E02BE1E068B8B10120C8F8BB
:100BB0000000FFF76BFC064605E000BFFFF766FC90
:100BC000801B0228C0D828688007F7D528682169CB
:100BD00020F0F80040EAC10028600DE0C8F800A04D
:100BE000FFF754FC064604E0FFF750FC801B022888
:100BF0001FD828688007F7D42078000722D5824EB6
:100C000083486169703671B101210160FFF73EFCD4
:100C1000074604E0FFF73AFCC01B022809D83068F9
:100C20008007F7D50EE0C0F800A0FFF72FFC0746BD
:100C300005E082E0FFF72AFCC01B02287DD830685F
:100C40008007F7D42078400768D5DFF8BCB10027CB
:100C50000BF13C0BDBF80000C0000BD4DBF80010FC
:100C600041F08051CBF80010DBF80000012700F0C4
:100C700080500090674E3068C00510D4306840F452
:100C800080703060FFF702FC009005E0FFF7FEFB8C
:100C90000099401A022850D83068C005F6D55A4E3F
:100CA000A0686C3601280FD00528306810D020F0DD
:100CB00001003060306820F004003060A068B8B1F6
:100CC000FFF7E4FB00900FE0306840F00100F4E72C
:100CD00040F004003060F7E7FFF7D8FB0099411AB5
:100CE00041F28830814266D830688007F4D50EE042
:100CF000FFF7CCFB009007E0FFF7C8FB0099411A13
:100D000041F28830814256D830688007F4D42FB140
:100D1000DBF8001021F08051CBF80010A069C8B3B7
:100D20003949091D0968C1F3810102294AD0022805
:100D3000504607D0C8F8600000E03CE0FFF7A6FB93
:100D400004463BE04746C8F86000FFF79FFB0646B5
:100D500005E000BFFFF79AFB801B02282BD828680C
:100D60008001F7D4D4E907010843A16A2A4A490857
:100D700002EB0141626A41EA8211084394F82C10A7
:100D800040EA0161C9F8001001203866FFF77EFBD8
:100D9000044606E036E000BFFFF778FB001B0228A0
:100DA00009D828688001F7D52CE000BFFFF76EFB5B
:100DB000001B022802D90320BDE8F88F28688001B3
:100DC000F4D41FE00128F7D0D9F80000E26900F45C
:100DD0008001914214D1226A00F03F0191420FD16B
:100DE00047F6C071626A0140914209D1A26A00F4DB
:100DF0004031914204D1E16A00F07060884201D034
:100E00000120D9E70020D7E704380240000047421C
:100E1000800E4742007000400000FFFF10B5401EEA
:100E2000B0F1807F01D3012010BD4FF0E02460615C
:100E30000F21601700F0A6F80020A06107202061B4
:100E4000002010BDFEE72DE9F0471E4690460D46F6
:100E50000446C1F30747DDF8209008E0701C06D077
:100E6000FFF714FBA0EB0900B0420FD876B1206861
:100E7000012F18D0806925EA00000004000C14D06E
:100E800000214145EAD00020BDE8F087002044F869
:100E9000300F20216173A073216941F0200121618D
:100EA00020730120F0E74069E5E70121E9E7FEE76B
:100EB000704770477047FFF79DBC000030B593B096
:100EC00030216846FFF7B6F914210CA8FFF7B2F9F4
:100ED0001A480025016841F080510160006800F067
:100EE000805011901648016841F48041016000680B
:100EF000022400F480401190012000900004019031
:100F00008001CDE90640082008904FF4A870CDE993
:100F1000090404200B906846FFF7D2FD0CA90F20AE
:100F200081E831004FF4A0500F90E00210900521AD
:100F30000CA8FFF7EBFC13B030BD000040380240B6
:100F4000007000400548016841F4700101600349E8
:100F50004FF00060803908607047000088ED00E0C5
:100F6000FEE700000FB4054B10B503A9044A029830
:100F700000F028F810BC5DF814FB00008512000892
:100F8000100000200907090E002804DB00F1E02012
:100F900080F80014704700F00F0000F1E02080F8A6
:100FA000141D704702E008C8121F08C1002AFAD1B8
:100FB00070477047002001E001C1121F002AFBD1D9
:100FC000704700002DE9FF4F8DB09B460F46044649
:100FD000002606E025280BD05A460F999047641C3E
:100FE000761C20780028F5D111B03046BDE8F08F8E
:100FF0000025A8460122984900E0054314F8013F66
:10100000203B02FA03F00842F7D120782E2817D1AE
:1010100014F8010F45F004052A280ED06FF02F02B6
:101020002078A0F1300109290AD808EB880102EBE9
:10103000410100EB0108641CF2E757F8048B641CC3
:1010400020786C280DD004DC4C2812D06A2811D1ED
:1010500004E074280DD07A280CD10AE045F400157C
:1010600007E0617845F48015814202D1641C05F5E2
:101070008015641C2078692844D008DC0028B3D08F
:10108000582867D063280FD0642808D13AE0702828
:1010900065D0732812D075285AD078285AD05A466D
:1010A0000F999047761CD5E017F8040B8DF80000D7
:1010B00000208DF80100E946012003E057F8049B69
:1010C0004FF0FF3069074FF0000501D40AE06D1CB6
:1010D00045450DDA8542FADB19F805100029F6D1ED
:1010E00006E06D1C8542FCDB19F805100029F8D1DB
:1010F0002E4404E019F8010B5A460F9990476D1ED3
:10110000F8D2A7E00A200021CDE90801C5F302507A
:1011100002280CD001CFC117021E71F100020CDAB7
:101120000023D0EB030063EB01012D2208E0FF1D3B
:1011300027F00707F7E80201EEE72A0504D52B227E
:101140008DF8282001223CE0EA073AD02022F7E778
:101150000A2000E010200021CDE9080107E010205E
:10116000002145F00405CDE908014FF00808C5F35A
:101170000250022810D001CF00214FF0000A2A07A8
:1011800020D52278702A0DD0DDE908C38CF0100C30
:101190005CEA030C0CD015E0FF1D27F00707F7E809
:1011A0000201EAE740228DF828204FF0010A0CE006
:1011B00050EA010306D030238DF828308DF829201D
:1011C000022292462278582A04D024A20DF1200946
:1011D0000B9209E026A2F9E7DDE90823FEF7F2FF0A
:1011E0000B9B9B5C09F8013D50EA0102F4D1ADEB89
:1011F000090020300890680701D44FF001080899D1
:10120000884503DD0898A8EB000000E00020804638
:10121000002506E00AA85A46405D0F9990476D1CCC
:10122000761C5545F6DB04E030205A460F9990476E
:10123000761CB8F10001A8F10108F5DC05E019F809
:10124000010B5A460F999047761C0899481E089042
:101250000029F4DC641CC4E6092801003031323373
:1012600034353637383961626364656600000000E2
:1012700030313233343536373839414243444546CC
:101280000000000008490968C90706D006498039EE
:101290000968CA074FF0604101D1704700BF0A6872
:1012A000002AFBD008707047800E00E008B5FFF7F9
:1012B000A9FAFFF703FE1F480021026842F08002EE
:1012C0000260026802F080020092026842F00102AD
:1012D0000260026802F001020092026842F002021B
:1012E00002600068144A00F0020000901348026097
:1012F000134AC0E901214FF48042C0E90312416161
:101300008161C1610162FFF7C7F800240A2301224D
:1013100021460A48FFF784F938B1641CE4B2FF2C77
:10132000F4D3C820FEF7C4FFEFE7214605A0FFF77E
:1013300019FEF6E730380240005400401400002047
:10134000A08601004861766520666F756E64207422
:1013500068652049324320616464722E20617420E4
:10136000307825580A00000000000000000000004E
:10137000010203040607080900000000010203043B
:10138000A01300080000002014000000A40F0008B3
:10139000B41300081400002054040000B40F000827
:1013A0000100000010000000000000000024F40014
:0413B0000000000039
:040000050800018965
:00000001FF
